:020000040800F2
:10000000702D00202D0D000831750008C56C00080A
:100010002D75000885110008E19D00080000000012
:10002000000000000000000000000000397500081A
:100030004512000800000000357500083D750008F5
:10004000470D0008470D0008470D0008470D000840
:10005000470D0008470D0008470D0008470D000830
:10006000470D0008470D0008470D0008151200084D
:10007000211200082D12000839120008470D00084F
:10008000470D0008470D0008450F0008470D000800
:10009000859C00085512000861120008470D0008F1
:1000A000470D0008CD750008470D0008470D0008F2
:1000B000470D0008470D0008470D0008470D0008D0
:1000C000470D0008470D0008470D0008470D0008C0
:1000D000470D0008470D0008470D0008A97F0008DC
:1000E000470D0008470D0008470D0008470D0008A0
:1000F000470D0008470D0008470D0008470D000890
:10010000470D0008470D0008470D0008470D00087F
:10011000470D0008470D0008470D0008470D00086F
:10012000470D0008470D0008470D0008470D00085F
:10013000470D0008470D0008470D0008470D00084F
:10014000470D0008470D0008470D0008470D00083F
:10015000470D0008470D0008470D0008470D00082F
:10016000470D0008470D0008470D0008470D00081F
:10017000470D0008470D0008470D0008470D00080F
:10018000470D0008470D0008470D0008470D0008FF
:10019000470D000800000000470D0008470D00084B
:1001A000470D0008470D0008470D0008470D0008DF
:1001B000470D0008470D0008470D0008470D0008CF
:1001C000470D0008470D0008470D0008470D0008BF
:1001D000470D0008470D000800F002F800F05CF839
:1001E0000AA090E8000C82448344AAF10107DA4592
:1001F00001D100F051F8AFF2090EBAE80F0013F088
:10020000010F18BFFB1A43F00103184734A6000082
:1002100054A600000A444FF0000C10F8013B13F004
:10022000070408BF10F8014B1D1108BF10F8015B4F
:10023000641E05D010F8016B641E01F8016BF9D142
:1002400013F0080F1EBF10F8014BAD1C0C1B09D199
:100250006D1E58BF01F801CBFAD505E014F8016B0B
:1002600001F8016B6D1EF9D59142D6D3704700009D
:100270000023002400250026103A28BF78C1FBD8AF
:10028000520728BF30C148BF0B6070471FB50AF046
:1002900091FA1FBD10B510BD00F01EFE1146FFF70C
:1002A000F5FF09F09FFD00F03CFE03B4FFF7F2FFFD
:1002B00003BC00F03FFE000010B540F20004C2F2A3
:1002C0000004204600F080FC204600F0E1FB20788E
:1002D00078B1022813D0012842D100F035FC40F259
:1002E0000000C2F2000000F0B7FCBDE8104000F0D2
:1002F000DDBC00F049FCBDE8104000F0D7BC94ED37
:100300004A0A94ED3C1A94EDAE3A94ED402A20EE60
:10031000010A20EE033A33EE021A9FED142A9FEDF4
:10032000124A84ED490AB4EEC21A31EE044AF1EEE3
:1003300010FA94ED420AC8BFB0EE441AD4ED430A55
:10034000B5EEC01A204631EE022AF1EE10FA84ED25
:10035000413AB8BFB0EE421A84ED401A00F0B4FA48
:10036000BDE8104000F0A2BCDB0FC9C0DB0FC940E4
:1003700010B50446007858B102280DD0012818BFE6
:1003800010BD00F0E1FB2046BDE8104000F064BC69
:10039000BDE8104000F0F8BB94ED4A0A94ED3C1A19
:1003A00094EDAE3A94ED402A20EE010A20EE033A95
:1003B00033EE021A9FED132A9FED114A84ED490A8C
:1003C000B4EEC21A31EE044AF1EE10FA94ED420A8C
:1003D000C8BFB0EE441AD4ED430AB5EEC01A31EEF0
:1003E000022AF1EE10FA84ED413AB8BFB0EE421A9B
:1003F000204684ED401ABDE8104000F065BA00BF09
:10040000DB0FC9C0DB0FC94090ED4A0A90ED3C1AE2
:1004100090EDAE3A90ED402A20EE010A20EE033A2C
:1004200033EE021A9FED112A9FED0F4A80ED490A23
:10043000B4EEC21A31EE044AF1EE10FA90ED420A1F
:10044000C8BFB0EE441AD0ED430AB5EEC01A31EE83
:10045000022AF1EE10FA80ED413AB8BFB0EE421A2E
:1004600080ED401A00F030BADB0FC9C0DB0FC94085
:1004700090ED4A0A90ED3C1A90EDAE3A90ED402A8C
:1004800020EE010A20EE033A33EE021A9FED112A04
:100490009FED0F4A80ED490AB4EEC21A31EE044ACC
:1004A000F1EE10FA90ED420AC8BFB0EE441AD0ED5A
:1004B000430AB5EEC01A31EE022AF1EE10FA80EDD1
:1004C000413AB8BFB0EE421A80ED401A00F0FCB9D4
:1004D000DB0FC9C0DB0FC94010B590ED230A0446FD
:1004E00009F0E2FF94ED231A84ED240AB0EE410AEC
:1004F00009F032FFD4F8980084ED250AC4F8DC0036
:1005000094ED273A94ED284A9FED1F5A94ED242A42
:1005100033EE443A23EE053A04EE100A94ED061A3F
:1005200084ED383A20EE045A23EE026A20EE033AB4
:1005300022EE044A35EE065A33EE443A84ED2F5A41
:1005400084ED303A94ED333A94ED344A20EE035A78
:1005500022EE046A22EE032A20EE040A35EE465A01
:1005600032EE002A84ED3B5A25EE010A62EE010AC2
:1005700004F1FC0004F5807104F5827284ED3C2ADC
:10058000BDE8104009F0DCBD3ACD133F10B590ED49
:10059000230A044609F088FF94ED231A84ED240A07
:1005A000B0EE410A09F0D8FE84ED250A10BD00BF67
:1005B00090ED270A90ED281AD0F8981030EE410AF5
:1005C0009FED041AC0F8DC1020EE010A80ED380A15
:1005D000704700BF3ACD133FD0F8EC109FED0B1AD7
:1005E000C0F8A41090ED3C0A02EE101A20EE010AA9
:1005F000BEEE001A22EE011A30EE012A31EE400A58
:1006000080ED2A2A80ED2B0A704700BFD7B35D3FEB
:1006100090ED240A90ED251A90ED372A90ED383AA6
:1006200022EE014A23EE005A21EE031A22EE000ABE
:1006300034EE054A31EE400A80ED2F4A80ED300A53
:10064000704700BF90ED240A90ED251A90ED332AF3
:1006500090ED343A22EE014A23EE005A22EE000ACF
:1006600021EE031A34EE454A31EE000A80ED3B4A92
:1006700080ED3C0A704700BF90ED060A90ED3B1AF2
:1006800090ED3C2A9FED2C3A20EE011A20EE020A52
:10069000BEEE002A20EE033A21EE022A32EE034A91
:1006A000B4EEC41AB0EE445A32EE432AF1EE10FA18
:1006B000C8BFB0EE415AB4EEC25AB0EE423AF1EEC3
:1006C00010FAB4EEC41AC8BFB0EE453AB0EE445AC0
:1006D000F1EE10FAB8BFB0EE415AB4EEC25A80ED56
:1006E0003C0AB0EE420AF1EE10FA80ED3B1AB8BFB8
:1006F000B0EE450A33EE000AB6EE003AB7EE005A05
:1007000020EE030A30EE411A30EE444A30EE420A3F
:1007100031EE431A34EE434A30EE430A31EE051A05
:1007200034EE054A30EE050A80ED3F1A80ED404A6E
:1007300080ED410A704700BFD7B35D3F90ED3B4A63
:100740009FED5E3A90ED3C1A9FED5D5A24EE030A50
:1007500030EE412AB6EE000A24EE054A22EE002AC7
:1007600034EE414A24EE004AB5EEC02A00220021B0
:10077000F1EE10FAB5EEC04AC8BF0122F1EE10FA50
:10078000C8BF0121B5EEC01A5200F1EE10FAC8BF81
:10079000013242EA8101013905291BD890ED065A40
:1007A00025EE033ADFE801F0031D3043566923EEDE
:1007B000422AB7EE001A23EE444A31EE421A31EED5
:1007C000441A21EE001A32EE042A34EE010A32EE07
:1007D000012A64E09FED3B1AB0EE412AB0EE410AD7
:1007E0005DE023EE444AB7EE002A23EE411A32EED2
:1007F000442A32EE412A22EE002A31EE040A30EE7B
:10080000020A31EE021A4AE023EE022A23EE013AEE
:10081000B7EE001A31EE421A31EE431A21EE001AF9
:1008200033EE020A30EE010A33EE012A37E023EEFE
:10083000411A23EE423AB7EE002A32EE412A32EE56
:10084000432A22EE000A31EE031A33EE002A31EE7B
:10085000001A24E023EE011AB7EE002A23EE043A30
:1008600032EE412A32EE432A22EE000A31EE031A1A
:1008700031EE002A33EE001A11E023EE041A23EEC3
:10088000023AB7EE002A32EE412A32EE432A22EE35
:10089000002A31EE031A33EE020A31EE021AB7EEE5
:1008A000003A33EE400A33EE422A33EE411A80ED2D
:1008B0003F0A80ED402A80ED411A7047D7B3DD3FF3
:1008C000D7B3DDBF0000000070B52DED068B0446E8
:1008D00000F5C875002084F890012846B0EE418AE2
:1008E000B0EE609AB0EE40AAFFF762FE9FED370AC5
:1008F0009FED351AB4EEC08A284638EE011AF1EEA3
:1009000010FAC8BFB0EE418AB5EEC08A38EE000AD0
:10091000F1EE10FAB8BFB0EE408A84ED878AFFF797
:1009200035FE2846FFF774FE284684ED97AA84ED2D
:10093000989AFFF787FE94ED6A1A94ED9F0A94ED5A
:10094000A02A04F5237604F5247504F5257420EE19
:10095000010A61EE020A30462946224609F0F0FB00
:1009600010B1BDEC068B70BD42F24020C2F2000017
:10097000006896ED000A90ED0B1AB8EE411A20EED1
:10098000010ABDEEC00A10EE101A416395ED000A8F
:1009900090ED0B1AB8EE411A20EE010ABDEEC00A26
:1009A00010EE101A816394ED000A90ED0B1AB8EE68
:1009B000411A20EE010ABDEEC00A10EE101AC16302
:1009C000BDEC068B70BD00BFDB0FC9C0DB0FC9409B
:1009D00042F24021C2F20001096891ED0B0AB8EE23
:1009E000400A90EDA31A90EDA42A21EE000A90EDA2
:1009F000A53ABDEEC00A10EE100A486391ED0B0A4D
:100A0000B8EE400A22EE000ABDEEC00A10EE100A4F
:100A1000886391ED0B0AB8EE400A23EE000ABDEEA2
:100A2000C00A10EE100AC863704700BF41F66C1090
:100A3000C2F2000090ED002AB0EE401A9FED103A8D
:100A400030EE420A9FED0F2AB4EEC20A30EE032ABE
:100A5000F1EE10FAC8BFB0EE420A9FED0C2A9FEDEE
:100A60000A3AB4EEC20A30EE032AF1EE10FAB8BF29
:100A7000B0EE420A20EE200A80ED001A704700BF57
:100A8000DB0FC9C0DB0F4940DB0FC940DB0F49C09A
:100A9000B0F862109FED264A00EE101AB8EE400A38
:100AA00090ED0B1A41F66C1121EE000AB7EE081A10
:100AB00090ED732A81EE001AC2F200019FED1E5ADA
:100AC0009FED1C6A80ED6A1AB6EE001A91ED003AAD
:100AD00020EE011A32EE433A21EE041AB4EEC53A82
:100AE00033EE064A80ED651A9FED151AF1EE10FA05
:100AF000C8BFB0EE443A9FED114A80ED660AB4EEED
:100B0000C13A9FED101A33EE040A90ED3F4AF1EE20
:100B100010FAB8BFB0EE403A23EE010A24EE001AF4
:100B200081ED002A80ED780A80ED791A704700BFC8
:100B30008FC2753FDB0FC9C0DB0F4940DB0FC940D7
:100B4000DB0F49C000409C4610B542F24024C2F27F
:100B500000042046002105F0B5FA2046002104F0EB
:100B600063FC2046042105F0ADFA2046042104F080
:100B70005BFC2046082105F0A5FA20460821BDE8C7
:100B8000104004F051BC00BF10B542F24024C2F244
:100B900000042046002105F06BFB2046002104F0F4
:100BA000D3FC2046042105F063FB2046042104F019
:100BB000CBFC2046082105F05BFB20460821BDE860
:100BC000104004F0C1BC00BF10B58021C5F2000187
:100BD0008A68A0F85C204B681FFA82FCA0F85E309F
:100BE0000A681FFA83FE40F2D443A0F86020C2F2E4
:100BF00000035C885B68A0F86440C0F86630D1F8F8
:100C0000001100EE10CAA0F86210B8EE400A90ED94
:100C10001D2A90ED051A30EE420A20EE010A90EDF1
:100C20001E3A90ED1F4A80ED8A0A00EE10EAB8EEF7
:100C3000400A30EE430A92B221EE000A80ED8B0AA0
:100C400000EE102AB8EE400A30EE440A21EE000A07
:100C500080ED8C0A10BD00BF42F24020C2F20000BD
:100C60000068B6EE001A90ED0B0AB8EE400A20EECE
:100C7000010ABDEEC00A10EE101A416390ED0B0A96
:100C8000B8EE400A20EE010ABDEEC00A10EE101ABE
:100C9000816390ED0B0AB8EE400A20EE010ABDEE2A
:100CA000C00A10EE101AC1637047000070B540F220
:100CB0004056C2F20006318842F26C304A1CC2F241
:100CC000000000258B1C92B245548554CA1C9BB26F
:100CD00080240431C454318092B27F2389B283547A
:100CE00000F07CFA358070BD10B540F2405CC2F275
:100CF000000CBCF8001010EE102A4B1C42F26C3EA7
:100D0000C2F2000E100A8C1C9BB20EF801200EF8E5
:100D10000300100CCB1CA4B204310EF80400100E1A
:100D2000ACF8001099B20EF8010010BD09488047D8
:100D300009480047FEE7FEE7FEE7FEE7FEE7FEE7BD
:100D4000FEE7FEE7FEE7FEE704480549054A064BD5
:100D500070470000B9750008D9010008702700200D
:100D6000702D0020702900207029002053EA020C09
:100D700000F069802DE9F04B4FF00006002B1FBFFB
:100D8000B3FA83F503FA05F424FA05F65E4012BFC0
:100D90001643B2FA82F502FA05F4C5F120051EBF2A
:100DA00022FA05FC44EA0C04203556EA044C4FEACA
:100DB000144418BF641C4FF000084FF00009904223
:100DC00071EB030C39D3002919BFB1FA81F701FA8D
:100DD00007F6B0FA80F700FA07F6C7F120071EBF42
:100DE00020FA07FC46EA0C062037B6FBF4FCA7EB1A
:100DF0000507103F07F01F0BCBF120062CFA06F673
:100E00000CFA0BFB44BFB3460026202FA4BF5E465E
:100E10004FF0000B5BEA060C08BF4FF0010B19EB1B
:100E20000B0948EB0608ABFB027C06FB02CC0BFB74
:100E300003CCC01B71EB0C01C1E70B4602464146D7
:100E40004846BDE8F08B13B5084318BF4FF0FF309C
:100E50000146AFF30080BDE81C4070474FF0000230
:100E600000B5134694469646203922BFA0E80C50A0
:100E7000A0E80C50B1F12001BFF4F7AF090728BF7B
:100E8000A0E80C5048BF0CC05DF804EB890028BFF7
:100E900040F8042B08BF704748BF20F8022B11F020
:100EA000804F18BF00F8012B70477047704770479C
:100EB00010B500F009F8006810BD10B5044600F048
:100EC00003F8046010BD0000004870477004002063
:100ED00000487047700400207546FFF7F9FFAE46E2
:100EE00005006946534620F00700854618B020B536
:100EF000FFF72AFFBDE820404FF000064FF0000743
:100F00004FF000084FF0000BAC46ACE8C009ACE86D
:100F1000C009ACE8C009ACE8C00921F007018D4662
:100F2000704710B50446AFF300802046BDE810407E
:100F3000FFF7BBB901491820ABBEFEE7260002004F
:100F40007047000080B541F64040C2F2000001F059
:100F500057F841F6AC40C2F20000BDE8804001F015
:100F60004FB800000146806AC36DC26D13F0500F88
:100F700007D0D20648BF01F041B8406D426B084629
:100F8000104742F40071C16501680B68CA681B070D
:100F900010D491071FD4C16D21F48071C165C16D5A
:100FA000C90448BF01F026B8C16D41F00101C16517
:100FB00001F020B812F4406F0DD1C96889040AD439
:100FC000C16D21F48071C165C16DC90403D4C16DC7
:100FD00041F00101C16501F00DB80000806AC16DEA
:100FE00041F04001C165016E41F00401016601F06C
:100FF00005B80000806A00F0FFBF0000B0B50168CE
:10100000044688688A6880074FF0000033D412F0E5
:10101000010208BFB0BD886800F00D0001281FD193
:1010200088684FF6C072C7F6FF72104002308860C1
:101030000320086002F046F921688968C90704BFE7
:101040000020B0BD054602E08068C00712D002F063
:1010500039F9411B20680329F6D38168C907F3D009
:10106000E06D40F01000E065206E40F00100206669
:101070000120B0BD0020B0BD70B582B00446002094
:10108000019021688A68D20779D14FF6C076C7F6F9
:10109000FF76886806F17F0210420AD0E06D40F0CA
:1010A0001000E065206E40F001002066012002B0D3
:1010B00070BD8868304040F00100886040F2001048
:1010C000C5F2000000F500721346814218BF00F51A
:1010D000C063B1F1A04F08BF1346986800022AD53B
:1010E00040F21030C2F20000006842F663518009FD
:1010F000C0F23E51A0FB0101880900EB40000C2129
:1011000001EB800001900198A8B100BF019801385F
:101110000190019878B1019801380190019850B17F
:10112000019801380190019828B101980138019087
:1011300001980028EAD102F0C5F821680A68D207B0
:1011400019D105468868C0070BD105E00868C007BB
:1011500014D18868C00704D18868304040F001008D
:10116000886002F0AFF8401B21680328EED30868BE
:10117000C007EBD192E7002002B070BD002002B0A2
:1011800070BD0000FEE7000000207047002070479F
:1011900010B541F67014C2F2000441F26C11C2F2B3
:1011A00000012046002207F03DF940F66C11C2F222
:1011B0000001204607F02CF9002010BD10B541F6C3
:1011C0007014C2F200040146204607F021F92046BF
:1011D00007F04AF8002010BD0020704710B541F616
:1011E0007012C2F20002D2F8BC22D2F81432002BE4
:1011F0001CBF012010BD41F67014C2F200040A4663
:101200000146204607F00EF92046BDE8104007F0E1
:101210008DB9000041F67850C2F2000001F0BABB6F
:1012200041F6D850C2F2000001F0B4BB41F61850AC
:10123000C2F2000001F0AEBB40F2E040C2F200009A
:1012400001F0A8BB70470000EFF3108072B600BF3A
:10125000FEE7000041F63860C2F2000001F00EBD6A
:1012600041F63860C2F2000001F008BDB0B582B0AE
:1012700004460020019094F85800012802D1022071
:1012800002B0B0BD012084F8580020460D46FFF79B
:10129000B5FEE16D10B141F010014AE041F20212D9
:1012A00091430231E16521684FF6C073D1F808C05F
:1012B000C3F6FF7303EA0C0305F080454DF60162A7
:1012C0002B44C0F2040203F100438B608B68B3F13E
:1012D000FF3F2ADC019B01330193019B93421DD800
:1012E0008B68B3F1FF3F20DC019B01330193019B2D
:1012F000934213D88B68B3F1FF3F16DC019B013397
:101300000193019B934209D88B68B3F1FF3F0CDC3A
:10131000019B01330193019B9342D7D9E06D40F0CB
:10132000100020F00201012003E0E16D012262F3D0
:101330000101E165002184F8581002B0B0BD000041
:10134000704700002DE9F04181B00022009290F832
:101350005820012A05D14FF0020C604601B0BDE8CB
:10136000F0814269012380F8583012B10D6A012DD5
:101370001FD14A68092A48D10A688B6A4FF4785607
:1013800006EA524223B103F07C03CE6A1A43324389
:10139000036844F20005DE6CC0F210452E4016438F
:1013A000DE644266D0F80080D8F80820120732D5F3
:1013B00046E0866E16B1426E00230DE000224266C2
:1013C0008E6A6B1E856636B106F07C02CE6A1A43C1
:1013D00042EA060300222E46D1E90045013E05F00F
:1013E0001F05C4F3846404FA05F543EA050342EAE1
:1013F0000302C0E9192608D1036844F20005DE6C37
:10140000C0F210452E403243DA64D0F80080D8F89C
:101410000820120714D4D8F80C2091F8256091F810
:10142000265022F44012002E4FEA455601D0324396
:1014300004E091F82450324342EA0552C8F80C20E7
:10144000D8F80820D8F80860F60846EA9202D207D1
:1014500016D18A6AE2B1CA6AD2B191F82520012A6E
:101460001FD1C26D4FF0010C42F02002C26591F80D
:101470003060D8F81020012E21D022F0020226E0A0
:101480004FF0000CD8F80820D20700F0F18044E1BA
:1014900091F82560D8F80C20012E04D142F000729A
:1014A00003E0D8F80C2022F000724FF0000CC8F8CE
:1014B0000C2091F83060D8F81020012EDDD1D1E950
:1014C0000D6522F4FF7232432A4342F00202C8F84B
:1014D00010200C6804268D6808F1140206EAD45E18
:1014E000C4F3406652F82660C4F304540727A740AB
:1014F000B5F1004F26EA070605D142F80E601268E2
:1015000042F0004207E005FA04F4344342F80E408A
:10151000126822F00042C8F81420D1E90426D8F855
:101520000C50042A73D1D8F86020D8F86020C2F398
:1015300084640A6892FAA2F5C2F3846E6FF3DF4204
:10154000B5FA85F5002A2E4608BF7646B4424FF616
:10155000FF74C0F207040ED1D8F8602022F00042D8
:10156000C8F860200D6805EA0402C5F3846E95FA98
:10157000A5F5B5FA85F5D8F86460D8F86460002A56
:10158000C6F384662F4608BF7746BE420ED1D8F810
:10159000642022F00042C8F864200D6805EA0402C5
:1015A000C5F3846E95FAA5F5B5FA85F5D8F86860A7
:1015B000D8F86860002AC6F384662F4608BF7746CD
:1015C000BE420ED1D8F8682022F00042C8F8682048
:1015D0000D6805EA040295FAA5F4C5F3846EB4FA21
:1015E00084F5D8F86C40D8F86C40002AC4F38464C1
:1015F00008BF7546AC4237D1D8F86C2022F00042C3
:10160000C8F86C20D8F80820D20731D085E006272A
:1016100007EA950706FA07FE0E6808F1600555F817
:1016200022404FF20007C0F2FF3706F0F8463C4078
:101630004EEA0607274347F0004745F822700A693B
:101640008F6955F8226026F08076374345F822707E
:101650000A690F7F55F82260012F26F0007608BF37
:1016600006F1007645F82260D8F80820D20754D158
:101670000E68CF684FF6FF73D8F8B050324607F0C7
:101680001804C0F207036FF3DF42E34095431340B1
:101690002B430025C4F27F05AF42C8F8B0303CD1DF
:1016A00096FAA6F3B3FA83F52B46002A08BFB30EC9
:1016B000013303F01E03092B4FEA96660CD8002A6B
:1016C00014BF6A1C721C02F01F020123934002EB3C
:1016D000420243EA025211E0002A14BF6A1C721C43
:1016E00002F01F0201230027934002EB4202CFF6D3
:1016F000206707EB02521A4342F000728B68C2F374
:10170000406708EB87077E69C2F3045207259540BE
:10171000AE4303FA02F232437A6109680022C8F24A
:101720000802114200F08D8040F20034C5F200043E
:10173000A4F5007204F58065904504BF40F20035C1
:10174000C5F200052A46B8F1A04F04BF40F20032AE
:10175000C5F2000296680023CCF22133994206F0CC
:10176000E07E04D01023C9F2C00399423ED1310279
:1017700067D440F20061C5F20001884502D0B8F19B
:10178000A04F5ED1916821F0E07141EA0E0141F471
:101790000001916040F21031C2F20001096842F686
:1017A00063528909C0F23E52A1FB0212910901EB7A
:1017B0004101182202EB810100910099002940D0DB
:1017C0000099013900910099D9B30099013900912C
:1017D0000099B1B3009901390091009989B300993A
:1017E0000139009100990029EAD12AE00023CCF2C6
:1017F0005273994208BF16F080731AD00022CCF6BB
:101800008432914208BF16F480011AD1B8F1A04F7A
:1018100006D040F20011C5F20001884511D02C46D7
:10182000A16821F0E07141EA0E0141F48001A1605C
:1018300007E0916821F0E07141EA0E0141F080710A
:101840009160002180F85810604601B0BDE8F08139
:101850007047000070B540F200450446C5F200052F
:101860000068A5F54071A5F580728842114618BF41
:1018700005F54071B0F1A04F08BF11468E68816830
:10188000090744BF022070BDC168C06C002908D49C
:1018900010F4C07005D1E06D40F02000E06501203B
:1018A00070BD94F85800012804BF022070BD0120CB
:1018B00084F858002046FFF7DFFB18B1002184F8B8
:1018C000581070BDE06D43F20102C00546BF206EA6
:1018D00020F0080000202066E06D40F200139043E5
:1018E00000F58050E0652068C5F2000340F2005228
:1018F00006F01F019842C5F2000207D090420BD1BA
:101900002E46002918BF864206D009E04FF0A046B7
:10191000002918BF864203D1E66D26F48016E665DD
:10192000602606600026984284F8586011D09042E4
:1019300013D1854211D0072905D8012202FA01F1FD
:1019400011F0C10F09D1E06D40F48010E065002076
:1019500070BD4FF0A0458542EDD1C168890144BFFB
:10196000002070BD81684FF6C072C7F6FF7211404B
:1019700008318160002070BD70B540F2004504461A
:10198000C5F200050068A5F54071A5F58072884292
:10199000114618BF05F54071B0F1A04F08BF1146C0
:1019A0008E688168090744BF022070BDC168C06CA1
:1019B000002908D410F4C07005D1E06D40F020007B
:1019C000E065012070BD94F85800012804BF022092
:1019D00070BD012084F858002046FFF74DFB18B178
:1019E000002184F8581070BDE06D43F20102C0057B
:1019F00046BF206E20F0080000202066E06D40F217
:101A0000001E904300F58050E0652068C5F2000E8E
:101A100040F2005C06F01F017045C5F2000C07D0D3
:101A200060450BD12E46002918BF864206D009E03A
:101A30004FF0A046002918BF864203D1E66D26F478
:101A40008016E66560260660002684F85860C66841
:101A5000B60203D5466846F480664660A6694268C9
:101A60006FF04003082E08BF6FF0200302EA030264
:101A7000426042684FF0200608BF4026324370455E
:101A8000426011D0604513D1854211D0072905D895
:101A9000012202FA01F111F0C10F09D1E06D40F409
:101AA0008010E065002070BD4FF0A0458542EDD16B
:101AB000C168890144BF002070BD81684FF6C072C3
:101AC000C7F6FF72114008318160002070BD000030
:101AD000704700007047000070B582B090F8582041
:101AE000012A03D10221084602B070BD012280F80C
:101AF0005820002201920092036840F2080CC5F2BF
:101B0000000CB3F1A04F0CF1F80E08D040F20042E7
:101B1000C5F2000293423AD10CF59F6200E0724692
:101B200092689C682243520731D40CF53E742246D9
:101B3000734518BF0CF5DF62B3F1A04F08BF224612
:101B4000D1F800E09468BEF1000F24F4604429D07D
:101B50004D6890F838602C4340F2001543F48073D0
:101B6000C5F2000544EA4634AB42946031D1DCF85A
:101B70000030DCF800412343DB0734D193688968E7
:101B800040F61F76B34341EA0E0119431EE0C16DD2
:101B900041F02001C1650121002280F8582008464B
:101BA00002B070BD43F4807140F20013C5F200032F
:101BB0009942946019D1DCF80010DCF80031194327
:101BC000C9071CD1916840F61F73994391600021A9
:101BD000E2E7DCF80044DCF80055DCF800362C4382
:101BE0002343DB07CAD00021D6E7DCF80034DCF859
:101BF0000065DCF8001633431943C907E2D0002121
:101C0000CAE70000F0B581B00022009290F8582099
:101C1000012A03D10221084601B0F0BD0123076863
:101C200080F85830BB685B0734D4D1E900531F26D5
:101C3000C3F3012407EB8404226B03F01F039E40CF
:101C4000B243C5F3846606FA03F31A432263BA6803
:101C5000BB68DB0843EA9202D20740F0BF800A6803
:101C6000D1F808E007F114030426C2F3406406EA41
:101C7000D25C53F82440C2F304550722AA40BEF1B7
:101C8000004F24EA02040BD143F80C401A6842F0DA
:101C900000430DE0C16D41F02001C1650121A2E1C9
:101CA0000EFA05F2224343F80C201A6822F0004392
:101CB0007B61D1E90435FC68042B62D13A6E3A6E3F
:101CC0004FF6FF7EC2F384620B68C0F2070E93FAF0
:101CD000A3F6C3F3846C6FF3DF43B6FA86F5002BEB
:101CE0002C4608BF6446A2420CD13A6E22F0004254
:101CF0003A660A6802EA0E03C2F3846C92FAA2F210
:101D0000B2FA82F57A6E7A6E002BC2F384622C46A8
:101D100008BF6446A2420CD17A6E22F000427A6675
:101D20000A6802EA0E03C2F3846C92FAA2F2B2FAD3
:101D300082F5BA6EBA6E002BC2F384622C4608BFDD
:101D40006446A2420CD1BA6E22F00042BA660A681A
:101D500002EA0E03C2F3846C92FAA2F2B2FA82F59E
:101D6000FA6EFA6E002BC2F3846208BF6546AA427F
:101D700034D1FA6E22F00042FA66BA68D20730D047
:101D800085E0062202EA940205FA02FC0E6807F1D9
:101D9000600555F823404FF20002C0F2FF3206F012
:101DA000F846224046EA0C06324342F0004245F82B
:101DB00023200A698B6955F8226026F08076334328
:101DC00045F822300A690B7F55F82260012B26F076
:101DD000007608BF06F1007645F82260BA68D2079F
:101DE00055D10D68CA68D7F8B0602B466FF3DF4352
:101DF00026EA030C4FF6FF7602F01804C0F207063D
:101E0000E64000241E40C4F27F0446EA0C06A242CB
:101E1000C7F8B0603BD195FAA5F2B2FA82F4224637
:101E2000002B08BFAA0E013202F01E02092A4FEA57
:101E300095650CD8002B14BF621C6A1C02F01F03AE
:101E400001229A4003EB430342EA035311E0002BC3
:101E500014BF621C6A1C02F01F03012200269A4074
:101E600003EB4303CFF6206606EB03531A4342F01D
:101E700000738A68C3F3406607EB86067569C3F38F
:101E8000045307249C40A5439A402A4372610B687F
:101E90000021C8F208010B4264D040F2003EC5F2B6
:101EA000000EAEF500710EF580648F4204BF40F263
:101EB0000034C5F200042146B7F1A04F04BF40F240
:101EC0000031C5F200018D680022CCF2213293422C
:101ED00005F0E07C04D01022C9F2C002934243D145
:101EE0002A025ED440F20062C5F20002974202D09C
:101EF000B7F1A04F57D18A6822F0E07242EA0C0293
:101F000042F400028A6040F21031C2F20001096816
:101F100042F663528909C0F23E52A1FB02129109B6
:101F200001EB41010C2202EB810100910099002993
:101F300045D00099013900910099002941D00099BC
:101F4000013900910099F1B300990139009100998C
:101F5000D9B3009901390091009900294FF000018F
:101F6000E7D140E000213EE00022CCF252729342E1
:101F700008BF15F0807218D00021CCF684318B4256
:101F80004FF0000108BF15F480022CD1B7F1A04F2B
:101F90001ED040F20011C5F200018F4217D100217E
:101FA00021E000211FE000211DE08A6822F0E0729C
:101FB00042EA0C0242F080728A60002113E00021A4
:101FC00011E000210FE000210DE000210BE0A6460A
:101FD000DEF8081021F0E07141EA0C0141F48001C3
:101FE000CEF808100021002280F85820084601B0E1
:101FF000F0BD00007047000070470000704700000F
:102000002DE9F04F81B040F20049C5F200090168A6
:1020100009F5407AA9F540785346044608684A68AD
:10202000A9F5807B414508BF5B46B1F1A04F08BFD1
:102030005B469B6802EA0005A80703F01F060CD563
:10204000E06DC00603D4E06D40F40060E06520461A
:10205000FFF776F921680220086015F00C0F65D0B3
:10206000E06DC00603D4E06D40F40070E065C86820
:1020700010F4406F54D140F20010C5F200008142CC
:102080000BD040F20052C5F2000291420A4612D132
:102090004A468A420A4605D10DE04FF0A0428A42E4
:1020A0000A4608D0092E28D80122B24040F2212346
:1020B0001A420A4621D0D068800431D4086800074B
:1020C0002ED5886840070FD4486820F00C0048607F
:1020D000E06D20F48070E065E06DC00420D4E06D18
:1020E00040F00100E0651BE0E06D40F01000E065AD
:1020F000206E40F00100206612E081420BD040F2D9
:102100000050C5F200000A46814208BF4A46D06826
:102110008004D3D504E04FF0A042D0688004CDD530
:102120002046FFF767FF21680C20086015F0600F5C
:1021300044D0E06DC00603D4E06D40F40050E0658B
:10214000CA6C40F20013D1F80CC0C5F200039942EA
:1021500002F4C07222D040F20057C5F20007B94223
:102160000F4622D130464E468E420F4606461CD0C0
:10217000072E05D80127B74017F0C10F0F4614D11D
:10218000994200F0828040F20053C5F200030F46EE
:10219000994208BF4F46FB6852B97CE030464FF089
:1021A000A0468E420F460646E2D1FB68002A72D056
:1021B0002046FEF781F8216860200860280624D4B4
:1021C000E8052ED4A80539D4E80644D5E06B68B1FB
:1021D000002E56D0414508BFDA46B1F1A04F08BFE6
:1021E000DA46DAF8080010F4604F0BD0E06D40F4E6
:1021F0008060E065206E40F0020020662046FFF718
:10220000FDFE21681020086025E0E06D40F480307C
:10221000E065204600F0A4F9216880200860E80508
:10222000D0D5E06D40F40030E0652046FFF750FC6B
:1022300021684FF480700860A805C5D5E06D40F4B2
:102240008020E0652046FFF745FC21684FF40070D0
:102250000860E806BAD468055CBF01B0BDE8F08F3D
:10226000E06D4FF4806240F48040E065206E40F005
:102270000800206620460A6001B0BDE8F04FFFF775
:10228000E7BAC868C007B1D1BCE74FF0A047FB6808
:10229000002A7FF48DAF9A0106D50CF4406003F458
:1022A000005280187FF484AF08689A023FF580AF2F
:1022B00010F040003FF47CAF8868000710D44868F5
:1022C00020F060004860E06D20F48050E065E06D33
:1022D000C0053FF56DAFE06D40F00100E06567E7D8
:1022E000E06D40F01000E065206E40F001002066D7
:1022F0005EE70000B0B582B00446002001904CB10A
:10230000E06D50B121688868800011D48868C000F1
:1023100018D54AE0012002B0B0BD204600F022F9F5
:102320000020206684F85800216888688000EDD578
:1023300088684FF6C072C5F6FF72104088608868E2
:10234000C00032D44FF6C0728868C5F6FF7202F141
:102350008052104000F18050886040F21030C2F28C
:102360000000006842F663528009C0F23E52A0FBB2
:1023700002029009022202EB400001900198A0B1F4
:10238000019801380190019878B1019801380190C5
:10239000019850B1019801380190019828B1019835
:1023A0000138019001980028EAD18868C00009D45A
:1023B000E06D40F01000E065206E40F00100206606
:1023C000012000E000208A68C2F38002E36D03F080
:1023D0001003D218E26D05D042F010010120E16532
:1023E00002B0B0BD22F481720232E2658A68D2077F
:1023F00027D140F2001341F48072C5F2000340F28D
:10240000080C9A42C5F2000C6AD1DCF80030DCF806
:1024100000211A43D20714D10CF1F8020CF53E73D7
:1024200091421A4618BF0CF5DF62B1F1A04F08BF08
:102430001A46D4F804C0936823F47C1343EA0C03CF
:102440009360627FE36B43EA4232D4E902C31A43EA
:1024500094F8243042EA0C02012B42EA034207D1ED
:10246000D4F828C00023CFF6FE7303EB4C431A4385
:10247000E36A33B103F47873D4F830C01A4342EA04
:102480000C02D1F80CC044F20703CFF6F07303EA54
:102490000C031A43CA600A69636B22F040621A4354
:1024A0000A618A6812074AD494F83820237F5200C0
:1024B00042EA833CCB6844F2020223EA020242EA87
:1024C0000C02CA6022690B69B2B143F480330B611C
:1024D000D1F8C0C043F6FF732CEA03031A4313E09C
:1024E000DCF800E4DCF80025DCF8003642EA0E02F5
:1024F0001A43D20790D0A4E723F480320A61D1F8BE
:10250000C02043F6FF739A43C1F8C02094F84030CE
:102510000A69012B10D140F2FD7322EA030CD4E9C1
:102520001132D4E913E543EA0C031A4342EA0E02DE
:102530002A4342F0010201E022F001020A616269CD
:102540000B6B012A23F00F0202D1236A013B1A43CD
:102550000A63E16D012262F30101E16502B0B0BDE1
:10256000704700002DE9F0419CB0044600201B900C
:10257000CDE91900CDE9170002A85421FEF76EFC41
:10258000206840F20011C5F20001884271D0B0F11C
:10259000A04F40F0E9804FF4004002904FF000500F
:1025A000139002A801F0C2FF002818BFFEF74CFEEE
:1025B00040F2DC48C2F20008D8F8001041F24C00AA
:1025C000C4F202004A1CC8F8002041B9016841F475
:1025D00000510160016801F4005101910199016805
:1025E00017AD41F0010101600168032601F001010E
:1025F000019101990168002741F002010160006822
:10260000294600F0020001900198072017904FF032
:1026100090401896199700F061FD41F2020017A949
:10262000C1C140F20040C4F60000294600F056FD4A
:102630003020C4F202001430454645F8040F05204E
:1026400080214FF48072C5E9010705F114004FF4B1
:1026500080632026C5E90371CCC0284600F0F2F95A
:10266000002875D0FEF7F0FD08F12C0708F10405ED
:1026700070E04FF4004002904FF00050139002A819
:1026800001F054FF002818BFFEF7DEFD40F2DC41E8
:10269000C2F200010A6841F24C00C4F20200531C6D
:1026A0000B6042B9016841F400510160016801F416
:1026B000005101910199016817AD41F004010160D9
:1026C0000168032701F004010191019901680026C6
:1026D00041F0010101600068294600F0010001900D
:1026E00001983720179040F20040C4F6000000F532
:1026F00080601897199600F0F1FCC020CDE917070B
:102700004FF090402946199600F0E8FC41F6185524
:102710003020C2F20005C4F20200242180224FF4CE
:10272000807385E8430005F114004FF480674FF093
:10273000200CC5E9036280E8881028462E6200F06C
:1027400081F9002805F1280718BFFEF77DFD01E09B
:1027500005F1280712200021002265653C6000F089
:1027600027FE122000F014FE1CB0BDE8F08100002E
:102770002DE9F04140F20017C5F200070446006859
:1027800007F500763346B84218BF07F5C063B0F1CD
:10279000A04F08BF33469B6886681546720704D46D
:1027A0000E4694F85810012902D10220BDE8F081AC
:1027B00007F5A06203F01F080121904284F8581029
:1027C00009D0B8F1090F27D8012000FA08F040F22B
:1027D0002121084220D02046FEF74EFC20B10021E6
:1027E00084F85810BDE8F0812168E06D40F6017270
:1027F000904300F58070B942E06513D040F200507C
:10280000C5F20000814214D107F54070B8F1000F05
:1028100018BF884211D10CE0002084F85800012034
:10282000BDE8F0814FF0A040B8F1000F18BF88421A
:1028300003D1E06D20F48010E065E06D40F6657333
:10284000C0044FF0000044BF206E20F00600206658
:10285000606D40F6F57740F6DD72C0F60003C0F615
:102860000007C0F600024FF0000CC0E90B374263CE
:102870001C220A6084F858C04A682B4642F01002B5
:102880004A60CA6842F00102CA604031324600F034
:1028900069F921684FF6C0738A68C7F6FF731A405A
:1028A00004328A60BDE8F08180B5014690F82500C9
:1028B000022824D10868D1E910CE8A6C036823F07D
:1028C0000E030360136823F480731360026822F020
:1028D000010202600EF01F00012202FA00F0CCF8A3
:1028E0000400D1E913205060486D60B1026822F401
:1028F00080720260D1E916024260002004E00420E8
:10290000C863012000E00020012281F82520002278
:1029100081F8242080BD000080B590F825100229A0
:102920002DD10168D0E910CE826C0B6823F00E0324
:102930000B600B6823F001030B60116821F48071B8
:1029400011600EF01F02012101FA02F2CCF80420FE
:10295000D0E913325A60426D32B1136823F48073A8
:102960001360D0E91623536080F82510826B002194
:1029700080F824100AB190470021084680BD042148
:10298000C1630121002280F8251080F82420084628
:1029900080BD0000B0B50268D0E910C4DCF800507A
:1029A000136804F01F0E590713D5042101FA0EF421
:1029B00014EA05010DD01168890603D4116821F0CD
:1029C00004011160CCF80440016BD1B3BDE8B04004
:1029D0000847990719D5022101FA0EF414EA0501F6
:1029E00013D01168890606D4116821F00A0111601C
:1029F000012180F82510CCF80440C16A002280F83B
:102A00002420F1B1BDE8B0400847190719D50821C5
:102A100001FA0EF1294008BFB0BD116821F00E0186
:102A20001160012101FA0EF2CCF80420C16380F894
:102A30002510416B002280F8242011B1BDE8B04080
:102A40000847B0BD00284FF0010100F088802DE953
:102A5000F04740F2000CC4F2020C02684FF6F83462
:102A60000CF58168CBF6FD74424538BF04F58064EF
:102A70004CF6CD451444CCF6CC45A4FB054E6FF086
:102A8000070454FA82F4A4FB05490CF580636FF047
:102A90000305D0E90264D0F810A03CBF0023C4F2C3
:102AA000020305EA9E05C0E91035022380F82530AF
:102AB000136847F6F077BB4333432343476943EA40
:102AC0000A0384693B43C7692343046A3B432343A6
:102AD000136042450CF5026238BF0CF50062AB187A
:102AE0000CF50862C0E91232C9F3041240F6840CF6
:102AF00001FA02F4B6F5804FC4F2020C046505D168
:102B0000002141601960CCF8004019E04168CAB268
:102B1000013903294FF000011A60CCF800400FD8AA
:102B2000013A0CEB820747F87C1F02F01F010122DB
:102B300002FA01F30CF1BC023946CCF8C03001E0D6
:102B40000022002300F1540C8CE80E000021012229
:102B5000C16380F8252080F82410BDE8F0470846BE
:102B6000704700002DE9F04190F824C0BCF1010F3E
:102B700043D04FF0010C80F824C090F825C0BCF180
:102B8000010F37D14FF0020C80F825C04FF0000C38
:102B9000C0F83CC0D0F800C000F14C0E9EE83040B8
:102BA000DCF80060BEF1000F26F00106CCF80060F2
:102BB00065601CBFD0E916456560D0E91076012537
:102BC00006F01F068468B540D0F830807D60CCF8F0
:102BD00004300B46102C04BF13460A46CCF80830CC
:102BE000CCF80C20DCF80010B8F1000F08D041F050
:102BF0000E010DE0002180F824100220BDE8F081D4
:102C000021F00401CCF80010DCF8001041F00A01BA
:102C1000CCF80010806C0168C90303D5016841F449
:102C200080710160BEF1000F05D0DEF8000040F4B5
:102C30008070CEF80000DCF8000040F00100CCF815
:102C400000000020BDE8F081B0B5044600F03AFB7A
:102C5000054640F2E820C2F200004068611C18BF3F
:102C6000044400BF00F02EFB401BA042FAD3B0BDCD
:102C70007047000070470000704700002DE9F04FDA
:102C800085B004460068016D426D056DD0F8549022
:102C9000D0F850A0D0F85480036D01EA020B0493E1
:102CA000436D0393036D0293436D0193436D076D71
:102CB0001F407B0659D405EA0906F8050BF4E055D8
:102CC0005ED408EA0A0806F007062DB120682946F6
:102CD0000565204600F0FEF908F038052EB12068A1
:102CE00031460665204600F0E9F92DB120682946F5
:102CF0000565204600F0E4F9B80554D438065BD4E5
:102D0000B80466D43804DDE9011000EA010506D5EF
:102D100020684FF400410165204600F0D3F9DDE959
:102D200003100840790405F4602107D522684FF4A8
:102D300080431365226E42F08002226600F4710522
:102D400021B1206801652046FFF794FF25B1206876
:102D50000565206E28432066206E002847D0204657
:102D600005B0BDE8F04FFFF783BF40210165204665
:102D7000FFF782FF05EA0906F8050BF4E055A0D538
:102D80002068D0F8D810D0F8E02011404FF48072BD
:102D90000265204600F09AF908EA0A08002D06F0BC
:102DA000070693D198E720684FF40071016520462B
:102DB00000F092F93806A3D52068D0F8D410D0F8E6
:102DC000DC20114080220265204600F081F9B80421
:102DD00098D520684FF400510165204600F074F941
:102DE0003804DDE9011000EA010591D497E705B048
:102DF000BDE8F08F70B5D8B1044690F85C0028B9F2
:102E0000002084F85D00204600F0FCF8206881690D
:102E100021F01001816100F055FA054620688169B2
:102E2000090707D500F04EFA401B0B28F6D312E035
:102E3000012070BD816941F00101816100F042FA19
:102E4000054600BF20688169C9070DD100F03AFA34
:102E5000401B0B28F6D3206E032140F001002066B2
:102E6000012084F85C1070BD826946F2004CC4F207
:102E7000000C42F002026045826102D16268CCF827
:102E80000021227C8369012A43F0400508BF23F01A
:102E900040058561627C8369012A23F4804508BF6F
:102EA00043F480458561A27C8369012A43F48055FF
:102EB00008BF23F4805585618269D4E902E322F4D6
:102EC000407545EA0E058561856925F0A405856193
:102ED000056925F010050561C3B1012B03D1836994
:102EE00043F0040311E08569022B02D145F0200371
:102EF0000BE045F0800585610569032B45F0100561
:102F0000056103D1836943F02003836104F1140553
:102F10002ACD226A5E1E6FF0FF0303EB052545EA0A
:102F20004665013A2A430025CFF6FF7505EB0141BE
:102F30001143BEF5407FC16110D1D4E909E2D4E963
:102F40000B61013A03EB06231A436FF00F0303EB07
:102F50000111114305EB0E421143C160D4E90D1379
:102F6000E26BD0F8C0603243C0F8C0200CF5806638
:102F70000CF58042B04204BF4AF25072C4F2000223
:102F80000CF50066B04208BF02F5D4622264D0F8A6
:102F9000806026F4F81646EA0141C0F8801002F17C
:102FA00070016164D0F8801021F0706141EA036122
:102FB000C0F8801002F1B000A06402F5C470E064B3
:102FC00002F51870206502F51E70606502F55470F8
:102FD000002100BF42F8041B82420BD242F8041BBE
:102FE000824207D242F8041B824203D242F8041BF9
:102FF0008242EFD300200121A065206684F85C1096
:1030000070BD000010B59CB0044600201B90CDE9B7
:103010001900CDE9170002A85421FDF71FFF206811
:1030200046F20041C4F20001884201D01CB010BD3C
:103030004FF4805002904FF08070109002A801F081
:1030400075FA002818BFFEF7FFF841F24C00C4F2F1
:103050000200C16841F00071C160C16801F00071F7
:1030600001910199016841F002010160006817A90E
:1030700000F00200019001984FF440701790022078
:1030800018900020CDE9190009201B9040F2004063
:10309000C4F6000000F022F815200021002200F004
:1030A00087F9152000F074F916200021002200F0A5
:1030B0007FF9162000F06CF91CB010BD70470000BD
:1030C0007047000070470000704700007047000024
:1030D0007047000070470000704700002DE9F04F76
:1030E00084B00C680190002C00F0E280019841F25D
:1030F000004600F13842C4F600068E464FEAB22779
:103100000621B04208BF0521052F4FF000054FF002
:1031100001074FF000064FF0000838BF4FEAB22118
:103120000091CDF808E00DE0DEF8004008F101085C
:1031300034FA07F106F1020607F1010705F104056B
:1031400000F0B680A7F1010A012000FA0AF214EAA1
:103150000209E9D0DEF804C00CF0030BABF1010466
:10316000012C17D80198744681680323E468B340A2
:103170009943B4402143816041684FEA480E91432E
:10318000CCF3001202FA0AF20446D84311436160FC
:103190000CE000BF0321B140019CC843BBF1030F09
:1031A000B64603D1B6464FF0030B23E0E168029B1D
:1031B00001409A68BBF1020F02FA0EF241EA0201E5
:1031C000E16017D16FF0030101EA5A01214405F0D3
:1031D0001C040F22D1F820C002FA04FB1A692CEA61
:1031E0000B0CA24042EA0C02019C0A62D3F804C014
:1031F0000CF0030B21680BFA0EF201401143216021
:10320000DDF808E01CF4403F8ED041F26000C4F2CB
:103210000200016840F2004C41F0010101600168C8
:10322000C4F2010C01F00101039103992AF003019A
:103230004FF608406144CFF6FF7082460A5805F009
:103240000C030F2000FA03F40098A24300FA03F3E2
:103250001A4341F80A20DCF80810DEF8042041EA9D
:10326000090340F20C40D40258BF21EA0903CCF80C
:103270000830C4F201000168940241EA090358BF12
:1032800021EA09030360DCF80410940341EA09030E
:1032900058BF21EA0903CCF80430DCF80010D2034F
:1032A00041EA090358BF21EA0903CCF800303BE7A3
:1032B00004B0BDE8F08F00001823002A08BF2823BF
:1032C000C150704742F26C70C2F200000068704753
:1032D00040F2E82042F26C71C2F20000C2F200013A
:1032E00040680A68104408607047000080B50320F9
:1032F00000F08AF80F2000F009F800281CBF012018
:1033000080BD00F02BF8002080BD000070B540F2B9
:10331000E826C2F200067168E1B1044640F21030BE
:10332000C2F200004FF47A720068B2FBF1F1B0FB18
:10333000F1F001F073FF0F2C4FF0010508D838B9F8
:103340004FF0FF3021460022002500F031F83460B4
:10335000284670BD0125284670BD000082B041F2AC
:103360005800C4F20200816841F001018160816867
:1033700001F0010101910199016841F08051016062
:10338000006800F080500090009802B001F0C4B8CE
:10339000002848BF704700F01F01012202FA01F126
:1033A0004EF200124009CEF2000242F8201070479F
:1033B00010B54EF60C5CCEF2000CDCF80030C3F316
:1033C000022E8EF00704042C28BF0424BEF1030350
:1033D0004FF0FF3E0EFA04F438BF0023A14399409A
:1033E0000EFA03F39A4300F00F03043B11436344C6
:1033F00009010C3300F16042B0F1FF3FC8BF02F594
:103400006443197010BD00004EF60C51CEF200015D
:103410000A684FF6FF031A4060F30A2242F0806008
:1034200040F0FD700860704701220168C0F8D022AA
:10343000002280F8C822B1F8540040F00100A1F841
:103440005400B1F8540040F002020020A1F85420CA
:103450007047000010B50129044612D009BB607AFC
:1034600048B104F06DF84EF61050CEF2000001683D
:1034700021F006010160D4F8D802BDE8104005F043
:10348000A7BAD4F8D80205F027FB607A002808BF55
:1034900010BD4EF61050CEF20000016841F006015A
:1034A000016010BD80B501F0070C0CEB8C0C00EB3B
:1034B000CC0C0CF1100C01EB810E090600EBCE00D8
:1034C00058BF00F5A87C4AB101208CF80C00180CFC
:1034D000ACF80830ACF80A00002080BD00208CF861
:1034E0000C000020ACF8063080BD000001EB81022A
:1034F000D0F8D83200EBC200426A184605F02AB96B
:1035000001EB8102D0F8D83200EBC200D0F8642180
:10351000184605F073B9000010B50446080601F01E
:10352000070000EB800104EBC10205D402F5A8718D
:10353000002382F8513103E0012302F1100153749A
:1035400094F890220870012A04BF022010BD206860
:10355000012284F8902205F031FF002084F89002C7
:1035600010BD0000B0B50446007901F00F028242A0
:1035700002D901252846B0BD080601F0070000EB7E
:10358000800104EBC10205D402F5A871002382F882
:10359000513103E0012302F11001537494F8902299
:1035A0000025012A8D70087002D102252846B0BD81
:1035B0002068012284F8902205F0A4FF284684F8B0
:1035C0009052B0BD01F0070101EB810100EBC10099
:1035D000D0F86C0170470000B0B50546080601F050
:1035E000070000EB800105EBC10C05D40CF5A871B8
:1035F00000248CF8514104E001240CF110018CF8F6
:1036000011406FF3DF2208700A61022BCB7004BFF8
:103610000020087195F89002012804BF0220B0BD77
:103620002868012285F8902205F05EFD002085F8CB
:103630009002B0BD10B501F0070C0CEB8C0100EB53
:10364000C10E0024CEF86421CEF86831CEF86C416A
:103650008EF8514100680EF5A8718EF850C105F042
:10366000A9FF002010BD000010B50279044601F04A
:103670000700904284BF012010BD0A0609D401EB67
:10368000810104EBC10202F5A871002382F85131D7
:1036900007E000EB800104EBC102012302F11001FD
:1036A000537494F890320122012B8A70087004BF81
:1036B000022010BD206884F8902205F061FF0020F0
:1036C00084F8900210BD000080B501F0070C0CEBEF
:1036D0008C0100EBC10101F810CF4FF0010C01F19A
:1036E000140781F824C04FF0000E87E80C400B62ED
:1036F000006881F801C005F05DFF002080BD00007A
:103700002DE9F04F81B00446006806F0C1FA0104CB
:1037100021D4410500F10A84410400F11884810498
:1037200000F12D84C10400F13484010500F15684B8
:10373000010600F16C84810500F17984C00540F137
:1037400003842068B0F8441021F48071A0F844107C
:1037500001B0BDE8F08F2068B0F94410B1F1FF3F2F
:1037600000F3F28304F5267140F60F7B0091B0F868
:10377000442012F00F0926D170E0B0F8501094F8F0
:103780005021014401EBC201B1F80634B4F85621CE
:1037900000996FF39F23C4F86C3106F07DFA20681E
:1037A000018801EA0B0180310180204600F0EAFD2A
:1037B0002068B0F94410002940F1C683B0F84420D5
:1037C00012F00F094AD030F829804FEA490A5FEA1F
:1037D000084140F14D8130F81A1040F60F7501EAAA
:1037E0000B01803120F81A1009EB890104EBC10BA1
:1037F0009BF85C110BF5A876002900F0A6809BF8D9
:103800005311022940F0B280B0F8502031780244C0
:103810005FEA484302EBC10200F1C080B2F80674CF
:10382000DBF868216FF39F27D21B4FF0000338BFEE
:103830001A46002ACBF8682100F0C9805FEA486286
:1038400000F1D58030F8212048F2C0032A401A4305
:1038500020F82120002F40F0CB80EEE00188D20636
:103860002CD401EA0B0101F500410180B0F85010A1
:10387000227C084400EBC200B0F80204616A6FF3D6
:103880009F20E0620844606220460021FFF72EFE80
:10389000207B00288CD0A06A002889D1207B216859
:1038A00040F08000C0B2A1F84C00002020732068D6
:1038B000B0F9441000293FF581AF45E30A053FF513
:1038C0005CAF09047FF574AF018801EA0B01803118
:1038D0000180B0F8501094F85021014401EBC2016E
:1038E000B1F806346FF39F23C4F86C3193B1D4F868
:1038F000641179B1B4F8562106F0CEF9D4F8640118
:10390000D4F86C110844C4F8640120460021FFF784
:10391000F7FD206801880A053FF54AAF01F44051E0
:10392000B1F5405F3FF444AF018843F60F72114098
:103930004CF28002A2F58052514001802068B0F91B
:10394000441000293FF53AAFFEE2B0F8501032784B
:10395000014401EBC201B1F806746FF39F27002FF9
:103960006BD0DBF86411BBF8562162E0317848F285
:10397000C00330F821202A401A4320F8212030F8D3
:103980002120B0F8503000EBC1015204194418D482
:10399000B1F806746FF39F2757BB4EE0B2F802747C
:1039A000DBF868216FF39F27D21B4FF0000338BF6D
:1039B0001A46CBF8682102B35FEA48622CD4A7BB51
:1039C0003BE0B1F802746FF39F2777BB35E030F826
:1039D000212043F60F731A4048F2C00303F5FE534B
:1039E0005A4020F821205FEA48627FF52BAF27B3C9
:1039F000DBF86411BBF85A211BE030F8212043F6B4
:103A00000F731A4048F2C00303F5FE535A4020F8E2
:103A100021205FEA4862D2D530F8212048F2C00365
:103A20002A401A4320F821203FB1DBF86411BBF88B
:103A300058213B4606F030F900E00027DBF86C1116
:103A4000DBE9590239443844CBF86C11CBF86401F6
:103A50001AB1DBF86001B84204D931782046FFF78B
:103A60004FFD03E02068314605F0A4FD40F60F7BD2
:103A70005FEA08607FF59CAE206809EB890130F8A9
:103A80001A3004EBC10203EA0B0101F5004120F8F2
:103A90001A10D77C02F1100A012F18D1117F0029CA
:103AA0004FF00001916200F0F980517C5FEA4862BA
:103AB00000F18680012900F0DF80002940F0EE80CF
:103AC000B0F850109AF80020D200063282E05FEA87
:103AD000C85124D4B0F850309AF80010034403EBD6
:103AE000C103B3F80234976A6FF39F23FF1A4FF0B4
:103AF000000538BF2F46002F976200F0D180516A31
:103B0000D76A19445162F918D162514605F052FD45
:103B10002068B0F9441000293FF550AE14E2B0F827
:103B200050309AF8001003444FEAC10C5FEA486530
:103B300003EBC1035BD4B3F80634956A6FF39F239C
:103B4000ED1A4FF0000638BF3546002D956200F0A3
:103B5000B1805FEA484708D430F821704CF2800504
:103B600007EA0B072F4320F82170154615F8341F7C
:103B7000012940F0C681174657F830EF57E9048114
:103B800057F8049C19449944C64547F80C1C47F85B
:103B9000049C80F0DD80BEF1000F00F07B810023EB
:103BA000F0463B602B70537C012B40F0D880B0F87E
:103BB00050304CF0060707443B44A3F8008488E1EA
:103BC000012960D0002969D1B0F850109AF800207E
:103BD000D200023208441044B0F800146FF39F2161
:103BE000A0F80014B0F8001441F4004154E0B3F818
:103BF0000234956A6FF39F23ED1A4FF0000638BF29
:103C00003546002D95627CD05FEA484708D530F8EC
:103C100021704CF2800507EA0B072F4320F8217032
:103C2000174617F8341F012940F06B81154655F8E7
:103C3000308F55E9049155F804EC19449E44C84569
:103C400045F80C1C45F804EC80F0AA804FF0000EFB
:103C5000B8F1000F87F800E040F0A5809846537C4B
:103C6000012B40F0A680B0F850304CF0020707441A
:103C70003B44A3F800843FE1B0F850109AF80020CC
:103C8000D200063205E0B0F850109AF80020D200B9
:103C90000232084410440021A0F800149AF80010E1
:103CA0002046FFF723FC2068B0F9441000293FF5B7
:103CB00085AD49E1527C012A00F09A80002A40F04B
:103CC000A680B0F850204CF0020300F5806E7344DB
:103CD0009D5A6FF39F259D529D5A45F400459D5274
:103CE000B0F850204CF0060373449D5A6FF39F25A3
:103CF0009D529D5A45F400459D52022F00F0898047
:103D000092E0527C012A00F09780002A40F0A380C4
:103D1000B0F850204CF0020300F5806E73449D5AB9
:103D20006FF39F259D529D5A45F400459D52B0F872
:103D300050204CF0060373449D5A6FF39F259D520B
:103D40009D5A45F400459D52022F00F086808FE079
:103D5000AEEB08033B60537C012B3FF428AF002BF4
:103D600040F0B7804CF00603B0F850E0034403F590
:103D7000806333F80E70B8F1000F6FF39F2723F8BC
:103D80000E7000F08F80B8F13E0F00F2918008F0C5
:103D900001073EF8035007EB580745EA872796E0EE
:103DA000A8EB090EC846C5F800E0537C012B3FF490
:103DB0005AAF002B40F0A0804CF00203B0F850E066
:103DC000034403F5806333F80E70B8F1000F6FF30E
:103DD0009F2723F80E7068D0B8F13E0F7BD808F00B
:103DE00001073EF8035007EB580745EA872781E0B3
:103DF000B0F850204CF0020300F580652B440026FB
:103E00009E52B0F850204CF006032B449E52022FD5
:103E10000AD130F8212040F63F731A4048F2C0031F
:103E2000203B5A4020F821202046FFF75FFB5FEA45
:103E300048403FF5BDAC22E0B0F850204CF0020302
:103E400000F580652B4400269E52B0F850204CF0BF
:103E500006032B449E52022F0AD130F8212040F64F
:103E60003F731A4048F2C003203B5A4020F82120FB
:103E70002046FFF73BFB5FEA48407FF599AC20689E
:103E80009AF800104CF2800330F8212002EA0B026D
:103E90001A4342E000272F709846537C012B7FF491
:103EA0005EAF84E63EF803700FE03EF803701FE05B
:103EB0005FEAC8654FEA58173EF803504FF0FF36E7
:103EC00008BF06EB581745EA872747F400472EF846
:103ED0000370528B11E05FEAC8654FEA58173EF84D
:103EE00003504FF0FF3608BF06EB581745EA872707
:103EF00047F400472EF80370128B1FFA88F305F081
:103F00002DFF20689AF8001040F63F7330F821200A
:103F10001A4048F2C003103B5A4020F82120206884
:103F2000B0F9441000293FF549AC0DE02068B0F825
:103F3000441021F48061A0F84410204600F0E4F918
:103F400094F8900201280CD101B0BDE8F08F2068F0
:103F5000B0F8441021F48041A0F8441001B0BDE84D
:103F6000F08F0120002584F890022573206800213D
:103F700005F0ECFE84F8905201B0BDE8F08F2068A7
:103F8000B0F8441021F40051A0F8441001B0BDE88D
:103F9000F08F2068B0F8401021F00401A0F8401024
:103FA000B0F8401021F00801A0F8401094F8C802C1
:103FB000012806D1002084F8C80220460021FFF71E
:103FC00049FA204600F0B2F92068B0F8441021F414
:103FD0008051A0F8441001B0BDE8F08F2168B1F81D
:103FE000400040F00800A1F84000B1F8440020F47F
:103FF0000060A1F84400B1F8400040F004022046FF
:10400000A1F8402001B0BDE8F04F00F0D9B9206818
:10401000B0F8441021F08001A0F8441094F8C812C0
:1040200091B1204601B0BDE8F04F00F0C9B9216858
:10403000B1F8440020F400722046A1F8442001B0F9
:10404000BDE8F04F00F086B9B0F8401041F004012F
:10405000A0F84010B0F8401041F00801A0F840105E
:10406000012184F8C812B0F854003C2101EA900202
:1040700020460121C4F8CC2201B0BDE8F04FFFF783
:10408000E9B90000F0B581B0002800F006810446CF
:1040900090F8910228B9002084F89002204600F0A0
:1040A000FFF8032084F89102206805F021FA2179B5
:1040B000002900F0E080A1F1010C01F0030EBCF139
:1040C000030F4FF0000335D304F1A002A1EB0E0063
:1040D000012600256F1C02F88F6C02F8905C02F834
:1040E0008D3C42E9203342F8783C02F8676C02F8D4
:1040F000687CAF1C02F8653C42E9163342F8503C3C
:1041000002F83F6C02F8407CEF1C043502F83D3C9D
:1041100042E90C3342F8283C02F8176C02F8187C8C
:1041200002F8153C42E902331360A84202F1A002F2
:10413000D0D12B46BEF1000F29D003EB830004EB56
:10414000C00501220020BEF1010F6A742B74E874CF
:10415000C5E90800A8621AD05D1C05EB850604EBD2
:10416000C606BEF1020F72743574F074C6E9080019
:10417000B0620CD0981C00EB800204EBC202012359
:10418000537410740020D074C2E9080090620029B2
:1041900071D0BCF1030F4FF0000235D304F5F0737A
:1041A000A1EB0E00002100BF4F1C03F88F2C03F879
:1041B000901C03F88D2C43E9202243F8782C03F857
:1041C000672C03F8687C8F1C03F8652C43E91622E2
:1041D00043F8502C03F83F2C03F8407CCF1C0431EB
:1041E00003F83D2C43E90C2243F8282C03F8172C44
:1041F00003F8187C03F8152C43E902221A60884260
:1042000003F1A003D0D10A46BEF1000F33D002EB78
:10421000820004EBC0010020BEF1010F81F85101C2
:1042200081F8502181F85301C1E95800C1F86801B3
:1042300021D0511C01EB810304EBC303BEF1020F3B
:1042400083F8510183F8501183F85301C3E95800F2
:10425000C3F868010FD0901C00EB800104EBC10192
:10426000002281F8512181F8500181F85321C1E9E0
:104270005822C1F8682194E8070005F02BF90020C6
:104280000121207384F89112A17A012903D12046DB
:10429000FFF7CAF8002001B0F0BD012001B0F0BD69
:1042A00010B596B0044601A85421FCF7D7FD20684C
:1042B00045F60041C4F20001884201D016B010BD9D
:1042C0004FF4005001900020109001A800F02EF94A
:1042D000002818BFFCF7B8FF41F25800C4F20200F2
:1042E0000168002241F4000101600068002100F42F
:1042F0000000009000981420FFF75AF81420FFF7F0
:1043000047F816B010BD000010B5044640790228E9
:1043100018BFFCF799FFD4F8D802012104F072FB12
:10432000D4F8D802BDE8104004F01EBB10B5044616
:10433000407A48B14EF61050CEF20000016821F0EC
:104340000601016003F0FCF8D4F8D802BDE8104083
:1043500004F03EBBD0F8D80204F044BB10B50446CC
:1043600090F89002012804BF022010BD012084F8BB
:1043700090022173206805F0E9FC002084F8900287
:1043800010BD0000D0F8D82200F52671104604F0C8
:104390004FBB000010B5044690F89002012804BFFE
:1043A000022010BD2068012184F8901205F060FC05
:1043B000206805F085F8002084F8900210BD000008
:1043C00010B50446D0F8D80204F086FB607A0028C5
:1043D00008BF10BD4EF61050CEF20000016841F04B
:1043E0000601016010BD0000002848D047F214010A
:1043F000C4F2000151F8142CB0F5007F40F0848025
:10440000C86E02F4C06240F48070B2F5806FC86676
:1044100078D151F8140C012262F34A2041F8140CAF
:1044200040F21030C2F200000068322250434DF6D4
:104430008362C4F21B32A0FB0202900C0A68431C88
:1044400018BF12F4806213D00A68002818BF12F453
:1044500080620DD00A68012818BF12F4806207D06C
:104460000A68022804D012F48062A0F10400E5D1A9
:104470000868400544BF032070470020704747F29A
:104480001400C4F2000050F8141CC26E01F4C061A4
:1044900022F48072B1F5806FC26633D150F8141CDB
:1044A000012262F34A2140F8141C40F21031C2F29A
:1044B00000010968322251434DF68362C4F21B3277
:1044C000A1FB0212910C02684B1C18BF12F480620F
:1044D00013D00268002918BF12F480620DD0026860
:1044E000012918BF12F4806207D00268022904D0A3
:1044F00012F48062A1F10401E5D10068400544BFD7
:104500000320704700207047022060F34A2241F8E0
:10451000142C00207047000047F20800C4F200008D
:10452000016841F480410160704700002DE9F041CD
:1045300082B00446807841F288060007C4F2020681
:1045400060D400202168CA0700F093803268636855
:1045500022F003021A4332608A0740F18D803268EC
:10456000A36822F00C021A4332604A0740F18780A8
:104570003268E36822F030021A4332600A0740F1E1
:1045800081803268236922F0C0021A433260CA0671
:104590007BD53268636922F440721A4332608A061E
:1045A00076D53268A36922F440621A4332604A0623
:1045B00070D53268E36922F440521A4332600A0629
:1045C0006AD53268236A22F440421A433260CA052F
:1045D00064D53268636A22F440321A4332608A0337
:1045E0005ED57269A36A22F003021A4372618A05DA
:1045F00058D53268E36A22F440221A4332604A05F1
:1046000052D460E056F8300CC0000ED456F8300C8E
:104610004FF0010840F0805046F8300C56F8300C4E
:1046200000F080500190019801E04FF0000847F23F
:104630000007C4F20007386840F480703860FEF765
:1046400041FE05463868C00500F1B780FEF73AFE26
:10465000401B0228F6D90320B8F1000F05D056F808
:10466000301C21F0805146F8301C2168CA077FF4C5
:104670006DAF8A073FF573AF4A073FF579AF0A0779
:104680003FF57FAFCA063FF584AF8A063FF589AF95
:104690004A068ED40A0694D4CA059AD48A03A0D4B2
:1046A0008A05A6D44A050ED53268236B22F440123F
:1046B0001A43B3F5801F326005D156F87C2C42F4C2
:1046C000801246F87C2C0A050ED53268636B22F402
:1046D00040021A43B3F5800F326005D156F87C2CA6
:1046E00042F4801246F87C2CCA040ED53268A36BC3
:1046F00022F040721A43B3F1807F326005D156F840
:104700007C2C42F4801246F87C2C8A040ED5326848
:10471000E36B22F040621A43B3F1006F326005D1BF
:1047200056F87C2C42F4801246F87C2C4A040ED5B4
:104730003268236C22F040621A43B3F1006F32609A
:1047400005D156F87C2C42F4801246F87C2C0A04E1
:104750000ED53268636C22F040521A43B3F1805F89
:10476000326005D156F87C2C42F4803246F87C2C1D
:10477000CA030ED53268A36C22F040421A43B3F14B
:10478000804F326005D156F87C2C42F4803246F8D6
:104790007C2C49030ED57169E26C21F44011114360
:1047A000B2F5001F716105D156F87C1C41F48011EF
:1047B00046F87C1C02B0BDE8F081B06810F440708F
:1047C0001FD0216D88420BD0B068B16820F44070D2
:1047D00041F48031B160B16821F48031B160B060E2
:1047E000C0070ED0FEF76EFD054641F2883700BFC8
:1047F000B068800705D4FEF765FD401BB842F7D9C5
:1048000029E7B068216D20F440700843B0600020B3
:10481000B8F1000F7FF423AF27E700002DE9F04740
:10482000002874D042F2000AC4F2020A0446DAF800
:1048300000000D4600F00F0088420CD2DAF80000AC
:1048400020F00F002843CAF80000DAF8000000F05A
:104850000F00A8425BD1216841F20808C807C4F2E2
:1048600002080DD14FF00009880700F1BB80B9F1B3
:10487000800F40F0D080D8F8000020F0F000C8E0B1
:104880006068032837D158F8082C92013FD5D8F832
:104890000420D8F8043042F2004702F00302C0F2CC
:1048A000F407C3F30313032A04BF41F20027C0F245
:1048B0007A07D8F804200133B7FBF3F3C2F30622DA
:1048C000D8F804705A43C7F34163022707EB430348
:1048D000B2FBF3F24BF20043C0F2C4439A425ED9FA
:1048E000D8F8002012F0F00F4FD0890757D5A168F3
:1048F000002954D149E058F8081C022805D1890341
:104900005CBF0120BDE8F08704E0490502D4012026
:10491000BDE8F087D8F8001001F00C0104293ED062
:10492000D8F8001001F00C01082938D0D8F8001090
:1049300001F00C010C2932D1D8F80410D8F8042069
:1049400042F2004301F00301C0F2F403C2F3031288
:10495000032904BF41F20023C0F27A03D8F80410FF
:104960000132B3FBF2F2C1F30621D8F8043051430F
:10497000C3F34162022303EB4202B1FBF2F14BF2BB
:104980000042C0F2C442914209D9D8F8001008226E
:1049900062F307114FF08009C8F8001001E04FF0F2
:1049A0000009D8F8001021F003010843C8F80000FE
:1049B000FEF788FC064641F2883700BFD8F80000B1
:1049C000616800F00C00B0EB810F07D0FEF77AFCB5
:1049D000801BB842F2D90320BDE8F0872168880720
:1049E0007FF545AF480705D5D8F8000040F4E060F2
:1049F000C8F80000080706D5D8F80000072262F3BF
:104A00000D20C8F80000D8F80000A26820F0F000DF
:104A10001043C8F80000DAF8000000F00F00A842C8
:104A20001BD9DAF8000020F00F002843CAF8000074
:104A3000FEF748FC064641F2883700BFDAF800006E
:104A400000F00F00A84207D0FEF73CFC801BB842E4
:104A5000F4D90320BDE8F0872168480707D5D8F8C6
:104A60000000E26820F4E0601043C8F80000080786
:104A700008D5D8F80000216920F4605040EAC10050
:104A8000C8F80000D8F8000042F20041C0F2F4017A
:104A900000F00C00042808462DD0D8F8000000F0E3
:104AA0000C00082841F20020C0F27A0023D0D8F888
:104AB000002002F00C020C2A1CD1D8F80420D8F8EF
:104AC000043002F00302C3F30313032A08BF0146B4
:104AD000D8F804000133B1FBF3F1C0F30620D8F895
:104AE00004204843C2F34161022202EB4101B0FBC2
:104AF000F1F000E00020D8F800104AF2F072C1F3A3
:104B00000311C0F60002515C40F2103201F01F01A7
:104B100020FA01F140F2E820C2F200000068C2F27F
:104B200000021160BDE8F047FEF7F0BB40F2103024
:104B300041F20801C2F20000C4F2020100680968F3
:104B40004AF60002C1F30221C0F60002515C01F0F6
:104B50001F01C8407047000040F2103041F20801C8
:104B6000C2F20000C4F20201006809684AF60002BD
:104B7000C1F3C221C0F60002515C01F01F01C84020
:104B80007047000041F20C01C4F2020151F8040C1C
:104B900042F20042C0F2F40200F00C000428104679
:104BA00008BF704751F8040C00F00C00082841F2CF
:104BB0000020C0F27A0021D051F8043C03F00C032D
:104BC0000C2B1CBF00207047D1F800C00B680CF004
:104BD000030CC3F30313BCF1030F08BF02460868BC
:104BE0000133B2FBF3F2C0F3062009685043C1F36E
:104BF0004161022202EB4101B0FBF1F0704700007D
:104C00002DE9F04182B0002800F0C8810446007808
:104C100041F20006C007C4F202061ED120788007C8
:104C200047D42078000740F1B8806169D6F8940035
:104C3000002900F0848040F00100C6F89400FEF7DF
:104C400041FB0546D6F89400800700F1A680FEF7E8
:104C500039FB401B0228F5D907E1B06800F00C01D0
:104C6000F068082949D0032281F00C0122EA0000F3
:104C70000844B0FA80F040093FD16568B5F5803F3F
:104C800007D03068B5F5A02F40F0F38040F48020C5
:104C90003060306840F480303060FEF713FB05462A
:104CA00030688003BAD4FEF70DFB401B6428F7D9A7
:104CB000DBE0B068F16800F00C00042826D001F0B9
:104CC000030180F00C0081F002010844B0FA80F08A
:104CD00040091BD1E1683068002941D040F4807060
:104CE0003060FEF7EFFA0546306840054AD4FEF71B
:104CF000E9FA401B0228F7D9B7E0306880037FF556
:104D00008DAF606800287FF489AF47E130684005C7
:104D100003D5E068002800F041817068216920F027
:104D2000FE4040EA0160706040F2E820C2F20000FC
:104D30000068FEF7EBFA002840F0308171E720F0C0
:104D40000100C6F89400FEF7BDFA0546D6F89400B7
:104D5000800722D5FEF7B6FA401B0228F6D984E078
:104D600020F480703060FEF7ADFA054630684005EB
:104D70007FF557AFFEF7A6FA401B02284FF003005D
:104D8000F4D975E17068216920F0FE4040EA0160C5
:104D90007060207800073FF548AF207840071CD4AA
:104DA0002078800640F1BD80A169D6F898000029DE
:104DB0007AD040F00100C6F89800FEF783FA054665
:104DC000D6F89800800700F1AC80FEF77BFA401B14
:104DD00002284FF00300F3D94AE1B06DC0000BD4B4
:104DE000B06D4FF0010840F08050B065B06D00F03C
:104DF00080500190019801E04FF0000847F2000751
:104E0000C4F200073868C0050FD4386840F48070D9
:104E10003860FEF757FA05463868C00505D4FEF736
:104E200051FA401B0228F7D91FE0A568012D07D0D1
:104E3000D6F89000052D4BD140F00400C6F8900044
:104E4000D6F8900040F00100C6F89000FEF73AFA5C
:104E5000054641F2883700BFD6F89000800754D449
:104E6000FEF730FA401BB842F6D9032002B0BDE885
:104E7000F08120F480303060306820F48020306091
:104E8000FEF720FA002D05467FF40AAF08E000BFC8
:104E9000FEF718FA401B64284FF0030000F2E88088
:104EA00030688003F4D4B9E620F00100C6F8980019
:104EB000FEF708FA054600BFD6F89800800730D5FF
:104EC000FEF700FA401B02284FF00300F4D9CFE0B0
:104ED00020F00100C6F89000D6F8900020F0040001
:104EE000C6F89000FEF7EEF9002D0546B1D141F26B
:104EF0008837D6F89000800707D5FEF7E3F9401B06
:104F0000B8424FF00300F4D9B2E0B8F1000F3FF41B
:104F100047AFB06D20F08050B065207880063FF537
:104F200043AFE569002D00F0A280B06800F00C00EE
:104F30000C2837D1012D31D0F068216A00F003022E
:104F40008A422BD1626A6FF00F0300F0F00103EB8D
:104F50000212914222D1A16A00F4FE42B2EB012F6B
:104F60001CD1E16A00F07842B2EBC16F16D1226B1E
:104F70000023CFF6E07303EA025200F4C001A2F569
:104F8000001291420AD1616B4FF07E4202EA016148
:104F900000F0C06001F17E41884268D0012002B07B
:104FA000BDE8F081306820F080703060FEF78AF94B
:104FB000022D05460CD100BF3068800113D5FEF7E5
:104FC00081F9401B02284FF00300F5D950E000BFE3
:104FD0003068800144D5FEF775F9401B02284FF078
:104FE0000300F5D944E0F06848F20C01C0F29F11CB
:104FF00004F1200700EA010C8ECF6FF00F00D4E916
:105000000C5400EB02100022CFF6E07241EA0C01D2
:1050100002EA05520843A2F500124FF07E4540EA2D
:10502000032005EA0465104305F17E4540EAC760A8
:105030002843F060306840F080703060F06840F0E5
:105040008070F060FEF73EF90446306880010ED4AF
:10505000FEF738F9001B02284FF00300F5D907E0EE
:10506000F0684FF6FC71CFF6EE610840F06000206A
:1050700002B0BDE8F0810000002804BF01207047A5
:10508000B0B50446406A20B10020206104F114004C
:1050900005E06068B0F5827F03D004F11C000021B8
:1050A00001600025A56294F85D0020B9204684F8CF
:1050B0005C5000F053F8022084F85D002068D4F8BA
:1050C0000CE00268BEF5E06F22F0400202604EF490
:1050D000006298BF0125B2F5706F1CBF0023A36268
:1050E0004FEA053CD4E90135D4E9042103F4827385
:1050F00005F404452B4402F002021A44A36901F0AE
:105100000101E569114403F40072114405F038020D
:10511000256A114405F08002A56A114405F4005285
:10512000114301600421626A0EF4706501EA1341C3
:10513000636B45EA0C0502F01002294303F00803F3
:10514000114319434160C16921F40061C16100202C
:105150000121206684F85D10B0BD000080B586B0E6
:10516000006843F60041C4F2000188424FF000019C
:105170000591CDE90311CDE9011123D043F20001DE
:10518000C4F20101884246D141F24C00C4F202004F
:10519000416941F480514161416901F480510091BC
:1051A0000099016841F0020101600068052100F0EA
:1051B0000200009000983820019040F20040C4F6B0
:1051C00000001FE041F24C00C4F20200C16841F44B
:1051D0000041C160C16801F400410091009901687B
:1051E00041F0040101600068062100F00400009015
:1051F00000984FF4E050019040F20040C4F60000E7
:1052000000F58060022202920022CDE9032205917E
:1052100001A9FDF763FF06B080BD0000411E00201C
:10522000B0EB116F1CBF012070474EF21002CEF29E
:10523000000251604EF62351CEF20001F0230B70B4
:1052400007219060116070477047000070470000B0
:1052500070470000B0B590F83C20012A02D102212D
:105260000846B0BD012280F83C20D1E90232D1E9E4
:1052700000CE22F47C5223F4705343EA020448F235
:10528000FF73CEF6F0730EEA0302224303F50064C7
:1052900004EA0C0442EA040C0C6903F5C0522240F3
:1052A0004C6942EA0C02224303F5605422400C6B25
:1052B00003F5F04323401A438B6940F2000CCC699C
:1052C000CEF6FF7C0CEA034C1443026842F600431E
:1052D000C4F201039A4244EA0C030BD045F20004E5
:1052E000C4F20104A24205D043F20044C4F2010416
:1052F000A24217D14FF6FF74CDF60F4403EA040E15
:10530000D1E9084CD1E90A310025CDF6F04505EA8E
:10531000035343EA0E0324F008552B432CF00055A9
:105320002B430B430021536480F83C100846B0BD6A
:1053300070470000704700007047000070B590F89B
:105340003C20012A4FF002026CD0012380F83C304F
:1053500080F83D20026842F600435468D2F808C045
:10536000C4F2010345F2000E9A42C4F2010E18BFC6
:10537000724530D14D6824F470042C434FF68F757C
:10538000CFF6FF550E682C4042F6FF35C4F20105FA
:105390003443AA4254600FDC40F2FF73C4F20003AE
:1053A0009A421FDCB2F1804F31D040F20043C4F288
:1053B00000039A422BD02FE043F6FF74C4F201049D
:1053C000A2421CDC9A4222D043F20043C4F2010301
:1053D0009A421CD020E043F20045C4F20105AA42E3
:1053E000C8D0CBE740F60003C4F200039A420ED0C7
:1053F00040F60043C4F200039A4208D00CE0724524
:1054000005D044F20003C4F201039A4204D1896832
:105410002CF08003194391600121002280F83D1097
:1054200080F83C20104670BD41B1082909D00429FC
:1054300014BF00F1470200F1450204E000F144020C
:1054400001E000F146021278012A1CBF01207047DA
:10545000022241B1082909D0042914BF80F847204D
:1054600080F8452004E080F8442001E080F84620E0
:10547000026801F00F000421136A01FA00F023EA28
:1054800000011162116A08431062506C42F6FF314C
:10549000C4F2010140F400408A4250640FDC40F243
:1054A000FF70C4F2000082421CDCB2F1804F32D0A7
:1054B00040F20040C4F2000082422CD03EE043F6AD
:1054C000FF70C4F20100824219DC42F60040C4F2CF
:1054D000010082421FD043F20040C4F20100824228
:1054E00019D02BE040F60000C4F20000824212D036
:1054F00040F60040C4F2000082420CD01EE045F2AB
:105500000000C4F20100824205D044F20000C4F25F
:105510000100824212D190680721C0F201010140CE
:1055200006294FF000000ED0B1F5803F08BF70474C
:10553000106840F00100106000207047106840F0D3
:10554000010010600020704710B5026801F00F0ED6
:105550004FF0040C146A0CFA0EF324EA03031362EE
:10556000136A1362146A41F211131C4206D1D2F875
:1055700020C044F244441CEA040F0ED0146A1C42BA
:1055800012D1136A44F2444423420DD1136823F02C
:1055900001031360082909D114E0546C24F4004479
:1055A0005464146A1C42ECD008290BD004290ED094
:1055B00000294FF0010114BF80F8471080F8441013
:1055C000002010BD012180F84610002010BD0121EF
:1055D00080F84510002010BD70470000002804BF6F
:1055E0000120704710B5044690F83D0028B900200E
:1055F00084F83C00204600F023F8022084F83D00A7
:105600002068211D01F0E8FF012084F8480084F89B
:105610003E0084F83F0084F8400084F8410084F89C
:10562000420084F8430084F8440084F8450084F87C
:10563000460084F8470084F83D00002010BD0000BB
:1056400080B582B0006840F20041C4F20001884297
:105650001DD042F60041C4F20101884224D141F23A
:105660005800C4F202008168002241F400618160A8
:105670008068002100F40060019001981920FDF776
:1056800097FE192002B0BDE88040FDF781BE41F2CF
:105690005800C4F20200016841F002010160006894
:1056A00000F002000090009802B080BD90F83D101C
:1056B00001291CBF01207047022180F83D100168BC
:1056C00042F6FF30C4F2010081420FDC40F2FF706D
:1056D000C4F2000081421CDCB1F1804F32D040F2B4
:1056E0000040C4F2000081422CD03EE043F6FF703F
:1056F000C4F20100814219DC42F60040C4F201000C
:1057000081421FD043F20040C4F20100814219D00F
:105710002BE040F60000C4F20000814212D040F6B7
:105720000040C4F2000081420CD01EE045F20000AF
:10573000C4F20100814205D044F20000C4F201002D
:10574000814212D188680722C0F201020240062A73
:105750004FF000000ED0B2F5803F08BF70470868D8
:1057600040F00100086000207047086840F0010028
:10577000086000207047000080B590F83C20012AA6
:105780004FF0020200F09E80012380F83C3080F848
:105790003D20D0F800C08822DCF80830CFF6CE7269
:1057A0001A40CCF808200B68B3F5005F0DDA3F2BE8
:1057B00025DD5F2B35DD602B00F08680702B00F03F
:1057C000A580B3F5805F76D0E8E02F22C0F210020A
:1057D00093421BDD4F21C0F210018B4249DD502165
:1057E000C0F210018B425AD06021C0F210018B42EE
:1057F00055D07021C0F210018B4250D0CEE01F2B4B
:1058000042DC002B4BD0102B49D0C7E0B3F1101F66
:105810003FDAB3F5005F00F08C80B3F5801F3ED017
:10582000BCE0402B00F09880502B40F0B780D1F8BE
:1058300004E0C968DCF82030DCF8202022F0010206
:10584000CCF82020DCF8182022F0F00242EA011106
:1058500023F00A0242EA0E02CCF81810CCF82020FD
:10586000DCF808104FF68872CFF6CF72114057312E
:105870001FE03021C0F210018B4210D04021C0F255
:1058800010018B420BD089E0202B08D0302B06D0A2
:1058900084E004D02021C0F210018B427ED1DCF8DC
:1058A00008104FF68872CFF6CF721140194341F0BD
:1058B0000701CCF808100022012180F83D100021DA
:1058C00080F83C10104680BDD1F804E0C968DCF8CF
:1058D0002030DCF8202022F01002CCF82020DCF868
:1058E000182022F4704242EA013123F0A00242EA79
:1058F0000E12CCF81810CCF82020DCF808104FF667
:105900008872CFF6CF7211406731D2E7D1E901E357
:10591000C968DCF8082043EA0E0322F47F4243EA18
:1059200001211143CCF80810DCF8081041F0770190
:10593000BFE7D1E901E3C968DCF8082043EA0E03B8
:1059400022F47F4243EA01211143CCF80810DCF82D
:10595000081041F48041ACE7D1F804E0C968DCF8F4
:105960002030DCF8202022F00102CCF82020DCF8E6
:10597000182022F0F00242EA011123F00A0242EA62
:105980000E02CCF81810CCF82020DCF808104FF6E6
:105990008872CFF6CF72114047318AE701228BE738
:1059A00070470000F0B581B004460068C76806691A
:1059B00006EA0705A90739D4680751D428076BD42C
:1059C000E80600F18680E80740F0A18017F0800724
:1059D00018BF16F4025040F0A880002F18BF16F42C
:1059E000807040F0AF80680600F1B680A80600F134
:1059F000BD80E80200F1C480A80200F1CB806802FB
:105A000006D520686FF4800101612046FFF794FC01
:105A100028025CBF01B0F0BD21686FF4000220468F
:105A20000A6101B0BDE8F040FFF7D6BD6FF002019A
:105A30000161012121778069800707D02046FFF7A7
:105A4000AFFF002020776807B8D509E0204600F0B6
:105A500007F9204600F034FB002020776807ADD519
:105A600020686FF00401016102212177806910F440
:105A7000407F07D02046FFF793FF002020772807BC
:105A80009ED509E0204600F0EBF8204600F018FB18
:105A900000202077280793D520686FF00801016166
:105AA00004212177C069800708D02046FFF778FFDE
:105AB00000202077E8067FF586AF0AE0204600F058
:105AC000CFF8204600F0FCFA00202077E8067FF5AA
:105AD0007AAF20686FF01001016108212177C06959
