:020000040800F2
:1000000038E500203D0D000879740008156C0008E3
:100010007574000885110008519C0008000000005C
:1000200000000000000000000000000081740008D3
:1000300045120008000000007D7400088574000867
:10004000570D0008570D0008570D0008570D000800
:10005000570D0008570D0008570D0008570D0008F0
:10006000570D0008570D0008570D0008151200081D
:10007000211200082D12000839120008570D00083F
:10008000570D0008570D0008550F0008570D0008C0
:100090000D9B00085512000861120008570D00085A
:1000A000570D00080D750008570D0008570D000882
:1000B000570D0008570D0008570D0008570D000890
:1000C000570D0008570D0008570D0008570D000880
:1000D000570D0008570D0008570D0008D17E000885
:1000E000570D0008570D0008570D0008570D000860
:1000F000570D0008570D0008570D0008570D000850
:10010000570D0008570D0008570D0008570D00083F
:10011000570D0008570D0008570D0008570D00082F
:10012000570D0008570D0008570D0008570D00081F
:10013000570D0008570D0008570D0008570D00080F
:10014000570D0008570D0008570D0008570D0008FF
:10015000570D0008570D0008570D0008570D0008EF
:10016000570D0008570D0008570D0008570D0008DF
:10017000570D0008570D0008570D0008570D0008CF
:10018000570D0008570D0008570D0008570D0008BF
:10019000570D000800000000570D0008570D00081B
:1001A000570D0008570D0008570D0008570D00089F
:1001B000570D0008570D0008570D0008570D00088F
:1001C000570D0008570D0008570D0008570D00087F
:1001D000570D0008570D000800F002F800F05CF819
:1001E0000AA090E8000C82448344AAF10107DA4592
:1001F00001D100F051F8AFF2090EBAE80F0013F088
:10020000010F18BFFB1A43F00103184780A4000038
:10021000A0A400000A444FF0000C10F8013B13F0BA
:10022000070408BF10F8014B1D1108BF10F8015B4F
:10023000641E05D010F8016B641E01F8016BF9D142
:1002400013F0080F1EBF10F8014BAD1C0C1B09D199
:100250006D1E58BF01F801CBFAD505E014F8016B0B
:1002600001F8016B6D1EF9D59142D6D3704700009D
:100270000023002400250026103A28BF78C1FBD8AF
:10028000520728BF30C148BF0B6070471FB50AF046
:10029000B7F91FBD10B510BD00F026FE1146FFF7DF
:1002A000F5FF09F0D7FC00F044FE03B4FFF7F2FFBE
:1002B00003BC00F047FE000010B540F20004C2F29B
:1002C0000004204600F0D6FB204600F037FB6079A2
:1002D00080B1022814D0012843D100F08BFB40F2FA
:1002E0000000C2F2000000F03BFCBDE8104000F04E
:1002F000E5BC00BF00F09EFBBDE8104000F0DEBC96
:1003000094ED4C1A94ED3E2A94ED423A21EE021AF5
:1003100094EDB22A84ED4B1A21EE021A84ED431AB1
:1003200031EE031A9FED123A9FED102A94ED440A24
:10033000D4ED450AB4EE431A31EE022AF1EE10FA7A
:10034000C8BFB0EE421AB5EE401A204631EE032A7D
:10035000F1EE10FAB8BFB0EE421A84ED421A00F086
:1003600029FCBDE8104000F0A9BC00BFDB0FC9C0EC
:10037000DB0FC94010B50446407958B102280DD0B2
:10038000012818BF10BD00F035FB2046BDE8104025
:1003900000F0E6BBBDE8104000F04CBB94ED4C1AF9
:1003A00094ED3E2A94ED423A21EE021A94EDB22ADF
:1003B00084ED4B1A21EE021A84ED431A31EE031A32
:1003C0009FED113A9FED0F2AB4EE431A94ED440AC3
:1003D000D4ED450A31EE022AF1EE10FAC8BFB0EEB4
:1003E000421AB5EE401A31EE032AF1EE10FAB8BF08
:1003F000B0EE421A204684ED421ABDE8104000F0EB
:10040000D9BB00BFDB0FC9C0DB0FC94090ED4C1A50
:1004100090ED3E2A90ED423A21EE021A90EDB22A7A
:1004200080ED4B1A21EE021A80ED431A31EE031AC9
:100430009FED0F3A9FED0D2A90ED440AD0ED450A4D
:10044000B4EE431A31EE022AF1EE10FAC8BFB0EE54
:10045000421AB5EE401A31EE032AF1EE10FAB8BF97
:10046000B0EE421A80ED421A00F0A4BBDB0FC9C007
:10047000DB0FC94090ED4C1A90ED3E2A90ED423AC8
:1004800021EE021A90EDB22A80ED4B1A21EE021AEB
:1004900080ED431A31EE031A9FED0F3A9FED0D2ABE
:1004A00090ED440AD0ED450AB4EE431A31EE022A2B
:1004B000F1EE10FAC8BFB0EE421AB5EE401A31EEB6
:1004C000032AF1EE10FAB8BFB0EE421A80ED421ADC
:1004D00000F070BBDB0FC9C0DB0FC94010B590ED59
:1004E000230A044609F006FF94ED231A84ED240A3A
:1004F000B0EE410A09F056FE94ED274A94ED285AD1
:100500009FED216A94ED242A94ED263A34EE454A73
:1005100024EE064A84ED373A84ED384A24EE025A36
:1005200023EE006A22EE033A24EE004A34EE433A08
:1005300084ED303A94ED343A94ED334A36EE055A70
:1005400084ED250A94ED061A84ED2F5A22EE035A03
:1005500024EE006A20EE030A24EE022A36EE455A03
:1005600032EE002A84ED3B5A25EE010A62EE010AC2
:1005700004F1FC0004F5807104F5827284ED3C2ADC
:10058000BDE8104009F000BD3ACD133F10B590ED25
:10059000230A044609F0AEFE94ED231A84ED240AE2
:1005A000B0EE410A09F0FEFD84ED250A10BD00BF42
:1005B00090ED270A90ED281AD0F8981030EE410AF5
:1005C0009FED041AC0F8DC1020EE010A80ED380A15
:1005D000704700BF3ACD133F90ED3C0A9FED0C1AD7
:1005E00090ED3B2A9FED0B4ABEEE003A20EE011A39
:1005F00022EE033A20EE040A33EE011A33EE000A2B
:1006000080ED292A80ED2A1A80ED2B0A704700BF61
:10061000D7B35D3FD7B35DBF90ED240A90ED251AA7
:1006200090ED382A90ED373A22EE004A23EE015A37
:1006300020EE030A22EE011A35EE044A31EE400A9A
:1006400080ED2F4A80ED300A704700BF90ED240AFC
:1006500090ED251A90ED342A90ED333A20EE024ABF
:1006600023EE015A21EE021A23EE000A35EE444A27
:1006700030EE010A80ED3B4A80ED3C0A704700BF36
:1006800090ED060A90ED3B1A90ED3C2A20EE011AFF
:1006900020EE020A9FED2A2A80ED3C0A20EE020A93
:1006A000BEEE002A21EE023A33EE004A33EE400A53
:1006B000B4EE441AB0EE443A80ED3B1AF1EE10FA73
:1006C000C8BFB0EE413AB4EE403AB0EE405AF1EE57
:1006D00010FAC8BFB0EE435AB4EE441AB0EE443A32
:1006E000F1EE10FAB8BFB0EE413AB4EE403AB0EED7
:1006F000406AF1EE10FAB8BFB0EE436A35EE063A42
:10070000B6EE005A23EE053A33EE411A33EE444A70
:1007100033EE400A31EE021AB7EE005A34EE024AC6
:1007200030EE020A31EE051A34EE054A30EE050AC3
:1007300080ED3F1A80ED404A80ED410A704700BFCE
:10074000D7B35D3F90ED3B4A9FED603A90ED3C1A88
:100750009FED5F5A24EE030A30EE412AB6EE000AFE
:1007600024EE054A22EE002A34EE414A0021B5EE7D
:10077000401A24EE004AF1EE10FAC8BF0121B5EE8E
:10078000402AF1EE10FAC8BF0231B5EE404AF1EE50
:1007900010FAC8BF0431013905291DD890ED065A59
:1007A00025EE033ADFE801F0042034485C7000BF16
:1007B00023EE422AB7EE001A23EE444A31EE421AE3
:1007C00031EE441A21EE001A32EE042A34EE010A08
:1007D00032EE012A6AE000BF9FED3E1AB0EE412AD8
:1007E000B0EE410A62E000BF23EE444AB7EE002AB1
:1007F00023EE411A32EE442A32EE412A22EE002A3A
:1008000031EE040A30EE020A31EE021A4EE000BF69
:1008100023EE022A23EE013AB7EE001A31EE421A15
:1008200031EE431A21EE001A33EE020A30EE010ACD
:1008300033EE012A3AE000BF23EE411A23EE423A9A
:10084000B7EE002A32EE412A32EE432A22EE000AA7
:1008500031EE031A33EE002A31EE001A26E000BF13
:1008600023EE011AB7EE002A23EE043A32EE412AB3
:1008700032EE432A22EE000A31EE031A31EE002A4C
:1008800033EE001A12E000BF23EE041A23EE023A00
:10089000B7EE002A32EE412A32EE432A22EE002A37
:1008A00031EE031A33EE020A31EE021AB7EE003AC5
:1008B00033EE400A33EE422A33EE411A80ED3F0A0E
:1008C00080ED402A80ED411A704700BFD7B3DD3F6D
:1008D000D7B3DDBF000000004DF23410C2F20000BB
:1008E00090ED002AB0EE401A30EE420A9FED0F2A3A
:1008F0009FED0F3A30EE022AB4EE430A9FED0E3A16
:10090000F1EE10FAC8BFB0EE420A9FED0A2AB4EE2B
:10091000430A30EE022AF1EE10FAB8BFB0EE420AF6
:1009200020EE200A80ED001A704700BFDB0FC9C01F
:10093000DB0F4940DB0FC940DB0F49C0B0F8661040
:1009400090ED0C1A00EE101AB8EE400A21EE000AE3
:10095000B7EE081A81EE001A9FED204A4DF23411CD
:10096000C2F2000190ED773A80ED6A0A90ED412ADB
:1009700080ED6E1AB6EE001A20EE011A21EE041A6E
:1009800080ED691A91ED001A9FED164A33EE410A87
:100990009FED131AB4EE440A30EE011A9FED134A8C
:1009A000F1EE10FAC8BFB0EE410A9FED0F1AB4EE97
:1009B000440A9FED0F4A30EE011AF1EE10FAB8BF6B
:1009C000B0EE410A20EE040A22EE001A81ED003A50
:1009D00080ED7C0A80ED7D1A704700BF8FC2753FA5
:1009E000DB0FC9C0DB0F4940DB0FC940DB0F49C03B
:1009F00000409C4610B54DF60824C2F20004204683
:100A0000002105F011FB2046002104F0F1FC2046F6
:100A1000042105F009FB2046042104F0E9FC2046EE
:100A2000082105F001FB20460821BDE8104004F034
:100A3000DFBC00BF10B54DF60824C2F2000420460A
:100A4000002105F0C1FB2046002104F05BFD20469B
:100A5000042105F0B9FB2046042104F053FD204693
:100A6000082105F0B1FB20460821BDE8104004F044
:100A700049BD00BF10B58021C5F200018A68A0F809
:100A800060204B681FFA82FCA0F862301FFA83FED8
:100A90004BF69C43C2F200030A685C885B68A0F8CE
:100AA0006420A0F86840C0F86A30D1F8001100EE68
:100AB00010CA90ED1E2AB8EE400A90ED1F3A30EEB3
:100AC000420A02EE10EA92B2B8EE422A90ED204AB3
:100AD00032EE432A03EE102A90ED061AB8EE433A9E
:100AE00033EE443A20EE010A21EE022A21EE031AE7
:100AF000A0F8661080ED8E0A80ED8F2A80ED901AA6
:100B000010BD00BF4DF60821C2F20001096891ED49
:100B10000B0A90EDA71AB8EE400A21EE000ABDEECE
:100B2000C00A90EDA82A90EDA93A10EE100A486389
:100B300091ED0B0AB8EE400A22EE000ABDEEC00AA3
:100B400010EE100A886391ED0B0AB8EE400A23EE0E
:100B5000000ABDEEC00A10EE100AC863704700BF5D
:100B60004DF60820C2F200000068B6EE001A90EDC3
:100B70000B0AB8EE400A20EE010ABDEEC00A10EEE4
:100B8000101A416390ED0B0AB8EE400A20EE010AFC
:100B9000BDEEC00A10EE101A816390ED0B0AB8EE9C
:100BA000400A20EE010ABDEEC00A10EE101AC16321
:100BB000704700BF70B52DED068B044600F5D0756B
:100BC000002084F8A0012846B0EE418AB0EE609A79
:100BD000B0EE40AAFFF7ECFC9FED371A9FED350A07
:100BE000B4EE418A38EE000AF1EE10FAC8BFB0EE5A
:100BF000408AB5EE408A284638EE010AF1EE10FA36
:100C0000B8BFB0EE408A84ED8B8AFFF7BFFC284660
:100C1000FFF702FD284684ED9BAA84ED9C9AFFF71E
:100C200015FD94ED6E1A94EDA30A94EDA42A04F533
:100C3000277604F5287504F5297420EE010A61EE83
:100C4000020A30462946224609F09EF910B1BDEC51
:100C5000068B70BD4DF60820C2F20000006896EDCC
:100C6000000A90ED0B1AB8EE411A20EE010ABDEE13
:100C7000C00A10EE101A416395ED000A90ED0B1AB0
:100C8000B8EE411A20EE010ABDEEC00A10EE101AAD
:100C9000816394ED000A90ED0B1AB8EE411A20EE34
:100CA000010ABDEEC00A10EE101AC163BDEC068B3E
:100CB00070BD00BFDB0FC9C0DB0FC94070B54BF67C
:100CC0000856C2F2000631884DF634304A1CC2F292
:100CD000000000258B1C92B245548554CA1C9BB25F
:100CE00080240431C454318092B27F2389B283546A
:100CF00000F074FA358070BD10B54BF6085CC2F296
:100D0000000CBCF8001010EE102A4B1C4DF6343EBF
:100D1000C2F2000E100A8C1C9BB20EF801200EF8D5
:100D20000300100CCB1CA4B204310EF80400100E0A
:100D3000ACF8001099B20EF8010010BD09488047C8
:100D400009480047FEE7FEE7FEE7FEE7FEE7FEE7AD
:100D5000FEE7FEE7FEE7FEE704480549054A064BC5
:100D600070470000F9740008D901000838DF00203E
:100D700038E5002038E1002038E1002053EA020C79
:100D800000F069802DE9F04B4FF00006002B1FBFEB
:100D9000B3FA83F503FA05F424FA05F65E4012BFB0
:100DA0001643B2FA82F502FA05F4C5F120051EBF1A
:100DB00022FA05FC44EA0C04203556EA044C4FEABA
:100DC000144418BF641C4FF000084FF00009904213
:100DD00071EB030C39D3002919BFB1FA81F701FA7D
:100DE00007F6B0FA80F700FA07F6C7F120071EBF32
:100DF00020FA07FC46EA0C062037B6FBF4FCA7EB0A
:100E00000507103F07F01F0BCBF120062CFA06F662
:100E10000CFA0BFB44BFB3460026202FA4BF5E464E
:100E20004FF0000B5BEA060C08BF4FF0010B19EB0B
:100E30000B0948EB0608ABFB027C06FB02CC0BFB64
:100E400003CCC01B71EB0C01C1E70B4602464146C7
:100E50004846BDE8F08B13B5084318BF4FF0FF308C
:100E60000146AFF30080BDE81C4070474FF0000220
:100E700000B5134694469646203922BFA0E80C5090
:100E8000A0E80C50B1F12001BFF4F7AF090728BF6B
:100E9000A0E80C5048BF0CC05DF804EB890028BFE7
:100EA00040F8042B08BF704748BF20F8022B11F010
:100EB000804F18BF00F8012B70477047704770478C
:100EC00010B500F009F8006810BD10B5044600F038
:100ED00003F8046010BD00000048704738BC0020D3
:100EE0000048704738BC00207546FFF7F9FFAE4652
:100EF00005006946534620F00700854618B020B526
:100F0000FFF72AFFBDE820404FF000064FF0000732
:100F10004FF000084FF0000BAC46ACE8C009ACE85D
:100F2000C009ACE8C009ACE8C00921F007018D4652
:100F3000704710B50446AFF300802046BDE810406E
:100F4000FFF7B3B901491820ABBEFEE72600020047
:100F50007047000080B54DF20840C2F2000001F079
:100F600049F84DF27440C2F20000BDE8804001F043
:100F700041B800000146806AC36DC26D13F0500F86
:100F800008D0D20648BF01F033B8406D426B084626
:100F9000104700BF42F40071C16501680B68CA6860
:100FA0001B0703D4910707D501F01EB812F4406F58
:100FB000FAD1C9688904F7D4C16D21F48071C16583
:100FC000C16DC90448BF01F00FB8C16D41F0010106
:100FD000C16501F009B80000806AC16D41F04001AF
:100FE000C165016E41F00401016601F001B8000025
:100FF000806A00F0FBBF0000B0B5016804468A6853
:101000008868C0074FF0000031D012F0020218BF0C
:10101000B0BD886800F00D0001281FD188684FF628
:10102000C072C7F6FF72104002308860032008606B
:1010300002F064F921688968C90704BF0020B0BDC7
:10104000054602E08068C00712D002F057F9411B44
:1010500020680329F6D38168C907F3D0E06D40F01A
:101060001000E065206E40F0010020660120B0BD58
:101070000020B0BD70B582B0044600200190216808
:101080008A68D20711D14FF6C076C7F6FF76886816
:1010900006F17F0210420BD0E06D40F01000E065D9
:1010A000206E40F001002066012002B070BD00BF3C
:1010B00088684FF4C162304040F00100886040F21F
:1010C0000010C5F20000814208BF4FF40272B1F176
:1010D000A04F08BF4FF402721058000222D402F051
:1010E0000DF921680A68D20718D1054603E000BF50
:1010F0000868C00712D18868C00704D188683040EA
:1011000040F00100886002F0F9F8401B21680328D4
:10111000EED30868C007EBD1BEE700BF002002B0E5
:1011200070BD00BF4BF6DC20C2F20000006842F642
:1011300063518009C0F23E51A0FB0101880900EB18
:1011400040000C2101EB8000019001980028C6D0DE
:1011500001980138019001980028C0D00198013809
:10116000019001980028BAD00198013801900198A7
:101170000028B4D001980138019001980028E7D1E7
:10118000ADE70000FEE70000002070470020704738
:1011900010B54DF23814C2F200044CF63411C2F20C
:1011A00000012046002207F0D1F84CF23411C2F2BF
:1011B0000001204607F0C0F8002010BD10B54DF228
:1011C0003814C2F200040146204607F0B5F8204664
:1011D00006F0DEFF002010BD0020704710B54DF274
:1011E0003812C2F20002D2F8BC22D2F81432002B1C
:1011F0001CBF012010BD4DF23814C2F200040A4693
:101200000146204607F0A2F82046BDE8104007F04E
:101210001FB900004DF24050C2F2000001F0B2BB15
:101220004DF2A050C2F2000001F0ACBB4DF2E04024
:10123000C2F2000001F0A6BB4BF6A840C2F20000CB
:1012400001F0A0BB70470000EFF3108072B600BF42
:10125000FEE700004DF20060C2F2000001F00ABD9E
:101260004DF20060C2F2000001F004BDB0B582B0E2
:1012700004460020019094F85800012802D1022071
:1012800002B0B0BD012084F8580020460D46FFF79B
:10129000B3FEE16D10B141F010014BE041F20212DA
:1012A00091430231E16521684FF6C073D1F808C05F
:1012B000C3F6FF7303EA0C0305F080454DF60162A7
:1012C0002B44C0F2040203F100438B608B68B3F13E
:1012D000FF3F2BDC019B01330193019B93421DD8FF
:1012E0008B68B3F1FF3F21DC019B01330193019B2C
:1012F000934213D88B68B3F1FF3F17DC019B013396
:101300000193019B934209D88B68B3F1FF3F0DDC39
:10131000019B01330193019B9342D7D9E06D40F0CB
:10132000100020F00201012004E000BFE16D012265
:1013300062F30101E165002184F8581002B0B0BDEC
:10134000704700002DE9F04181B00022009290F832
:101350005820012A06D14FF0020C604601B0BDE8CA
:10136000F08100BF4269012380F8583012B10D6A44
:10137000012D19D14A68092A3FD10A688B6A4FF4B6
:10138000785606EA524223B1CE6A03F07C03334317
:101390001A43036844F20005DE6CC0F210452E408B
:1013A0001643DE64426628E0866E1EB1436E00225C
:1013B0000AE000BF8B6A6A1E23B103F07C03CE6A89
:1013C0001A43324300232E46D1E90045013E05F081
:1013D0001F05C4F3846404FA05F542EA050242EAF3
:1013E0000302C0E9192608D1036844F20005DE6C47
:1013F000C0F210452E403243DA64D0F80080D8F8AD
:101400000820120715D4D8F80C2091F8256091F81F
:10141000265022F44012002E4FEA455602D03243A5
:1014200005E000BF91F82450324342EA0552C8F863
:101430000C20D8F80820D8F8086002F0040206F062
:101440000806921916D18A6AC2B1CA6AB2B191F875
:101450002520012A1CD1C26D4FF0010C42F0200260
:10146000C26591F83060D8F81020012E1ED022F00D
:10147000020223E04FF0000CEBE000BF91F8256082
:10148000D8F80C20012E05D142F0007204E000BF14
:10149000D8F80C2022F000724FF0000CC8F80C2095
:1014A00091F83060D8F81020012EE0D1D1E90D6517
:1014B00022F4FF7232432A4342F00202C8F810209D
:1014C0000C68042608F1140206EAD45EC4F34066F0
:1014D0008D6852F82660C4F304540727A740B5F17D
:1014E000004F26EA070605D142F80E60126842F066
:1014F000004207E005FA04F4344342F80E40126853
:1015000022F00042C8F81420D1E90426D8F80C5083
:10151000042A71D1D8F86020D8F860200C68C2F392
:10152000846694FAA4F52246B5FA85F5C4F3846E70
:101530006FF3DF422C46002A08BF7446A6424FF6DE
:10154000FF74C0F207040ED1D8F8602022F00042E8
:10155000C8F860200D6805EA0402C5F3846E95FAA8
:10156000A5F5B5FA85F5D8F86460D8F86460002A66
:10157000C6F384662F4608BF7746BE420ED1D8F820
:10158000642022F00042C8F864200D6805EA0402D5
:10159000C5F3846E95FAA5F5B5FA85F5D8F86860B7
:1015A000D8F86860002AC6F384662F4608BF7746DD
:1015B000BE420ED1D8F8682022F00042C8F8682058
:1015C0000D6805EA040295FAA5F4C5F3846EB4FA31
:1015D00084F5D8F86C40D8F86C40002AC4F38464D1
:1015E00008BF7546AC4234D1D8F86C2022F00042D6
:1015F000C8F86C202DE000BF062707EA950706FA19
:1016000007FE0E6808F1600555F822404FF200070A
:10161000C0F2FF3706F0F8463C404EEA0607274383
:1016200047F0004745F822700A698F6955F8226033
:1016300026F08076374345F822700A690F7F55F807
:101640002260012F26F0007608BF06F1007645F8EB
:101650002260D8F80820D2074ED10E68CF684FF626
:10166000FF73D8F8B050324607F01804C0F20703F1
:101670006FF3DF42E340954333402B430025C4F230
:101680007F05AF42C8F8B03036D18AB196FAA6F2DB
:10169000B2FA82F2013202F01E03092B02F01F029D
:1016A0000FD80123934002EB420243EA025214E0B6
:1016B000012202EB966202F01E030A2B02F01F02C7
:1016C000EFD301230027934002EB4202CFF62067BD
:1016D00007EB02521A4342F00072C2F3406708EB74
:1016E00087078B687E69C2F3045207259540AE4395
:1016F00003FA02F232437A6109680022C8F2080252
:10170000114200F08F8040F20034C5F20004A4F5CD
:10171000007204F58065904504BF40F20035C5F2C3
:1017200000052A46B8F1A04F04BF40F20032C5F2CE
:10173000000296680023CCF22133994206F0E07E45
:1017400004D01023C9F2C00399423FD1310269D4B9
:1017500040F20061C5F20001884502D0B8F1A04F07
:1017600060D1916821F0E07141EA0E0141F400017D
:1017700091604BF6DC21C2F20001096842F6635227
:101780008909C0F23E52A1FB0212910901EB41010D
:10179000182202EB810100910099002942D000BF7C
:1017A0000099013900910099E1B300990139009144
:1017B0000099B9B3009901390091009991B300994A
:1017C0000139009100990029EAD12BE00023CCF2E5
:1017D0005273994208BF16F080731BD00022CCF6DA
:1017E0008432914208BF16F480011BD1B8F1A04F9A
:1017F00006D040F20011C5F20001884512D02C46F7
:10180000A16821F0E07141EA0E0141F48001A1607C
:1018100008E000BF916821F0E07141EA0E0141F05B
:1018200080719160002180F85810604601B0BDE8D9
:10183000F08100007047000070B540F2004504469A
:10184000C5F200050068A5F540714FF44272884268
:1018500008BF6FF0F702B0F1A04F08BF6FF0F702BA
:1018600056598168090744BF022070BDC168C06C29
:1018700010F4C07F08D1002906D4E06D40F02000AC
:10188000E065012070BD00BF94F85800012804BF36
:10189000022070BD012084F858002046FFF7EAFBC3
:1018A00020B1002184F8581070BD00BFE06D43F2F4
:1018B0000102C00546BF206E20F00800002020660F
:1018C000E06D40F20013904300F58050E065206821
:1018D000C5F2000340F2005206F01F019842C5F223
:1018E000000207D090420BD12E46864218BF002935
:1018F00006D009E04FF0A046864218BF002903D168
:10190000E66D26F48016E66560260660002698429D
:1019100084F8586004D090420ED1854204D10BE087
:101920004FF0A045854207D0072915D8012202FAB9
:1019300001F111F0C10F0FD0C168890144BF00202F
:1019400070BD81684FF6C072C7F6FF721140083152
:101950008160002070BD00BFE06D40F48010E06544
:10196000002070BD70B540F200450446C5F2000588
:101970000068A5F540714FF44272884208BF6FF0CD
:10198000F702B0F1A04F08BF6FF0F7025659816817
:10199000090744BF022070BDC168C06C10F4C07F4D
:1019A00008D1002906D4E06D40F02000E065012058
:1019B00070BD00BF94F85800012804BF022070BD1C
:1019C000012084F858002046FFF754FB20B1002185
:1019D00084F8581070BD00BFE06D43F20102C005ED
:1019E00046BF206E20F0080000202066E06D40F227
:1019F000001E904300F58050E0652068C5F2000E9F
:101A000040F2005C06F01F017045C5F2000C07D0E3
:101A100060450BD12E46864218BF002906D009E04A
:101A20004FF0A046864218BF002903D1E66D26F488
:101A30008016E66560260660002684F85860C66851
:101A4000B60203D5466846F480664660A6694268D9
:101A50006FF04003082E08BF6FF0200302EA030274
:101A6000426042684FF0200608BF4026324370456E
:101A7000426005D060450FD1854205D10CE000BF22
:101A80004FF0A045854207D0072915D8012202FA58
:101A900001F111F0C10F0FD0C168890144BF0020CE
:101AA00070BD81684FF6C072C7F6FF7211400831F1
:101AB0008160002070BD00BFE06D40F48010E065E3
:101AC000002070BD704700007047000070B582B004
:101AD00090F85820012A03D10221084602B070BDB7
:101AE000002201920092026840F2080CC5F2000C3C
:101AF000B2F1A04F0CF1F80508D040F20043C5F256
:101B000000039A423ED10CF59F6300E02B469B6890
:101B1000946823435B0735D44FF4E063D1F800E0C9
:101B2000AA4208BF4FF44073B2F1A04F08BF4FF470
:101B300040735CF80340BEF1000F24F460442DD0E4
:101B40004D6890F838602C4340F2001542F48072E2
:101B5000C5F2000544EA4634AA424CF8034037D1A6
:101B6000DCF80020DCF800412243D2073AD15CF8CF
:101B70000320896840F61F74A24341EA0E01114315
:101B800022E000BFC16D41F02001C16501210022AA
:101B900080F85820084602B070BD00BF42F4807142
:101BA00040F20012C5F2000291424CF803401BD1F2
:101BB000DCF80010DCF800211143C9071ED15CF8E5
:101BC000031040F61F7291434CF803100021DEE72A
:101BD000DCF80044DCF80055DCF800262C432243F6
:101BE000D207C4D00021D2E7DCF80024DCF800657D
:101BF000DCF8001632431143C907E0D00021C6E7E4
:101C0000F0B581B00022009290F85820012A03D14B
:101C10000221084601B0F0BD0123076880F8583062
:101C2000BB685B0736D4D1E900531F26C3F30124F8
:101C300007EB8404226B03F01F039E40B243C5F3FD
:101C4000846606FA03F31A432263BA68BB6802F09B
:101C5000040203F00803D21840F0BD800A6807F1BF
:101C600014030426C2F34064D1F808E006EAD25C0B
:101C700053F82440C2F304550722AA40BEF1004F96
:101C800024EA02040CD143F80C401A6842F00043E5
:101C90000EE000BFC16D41F02001C16501219DE151
:101CA0000EFA05F2224343F80C201A6822F0004392
:101CB0007B61D1E90435FC68042B5FD13A6E3A6E42
:101CC0000B68C2F3846293FAA3F6C3F3846C6FF3D8
:101CD000DF43B6FA86F5002B2C464FF6FF7E08BF91
:101CE0006446A242C0F2070E0CD13A6E22F00042C6
:101CF0003A660A6802EA0E03C2F3846C92FAA2F210
:101D0000B2FA82F57A6E7A6E002BC2F384622C46A8
:101D100008BF6446A2420CD17A6E22F000427A6675
:101D20000A6802EA0E03C2F3846C92FAA2F2B2FAD3
:101D300082F5BA6EBA6E002BC2F384622C4608BFDD
:101D40006446A2420CD1BA6E22F00042BA660A681A
:101D500002EA0E03C2F3846C92FAA2F2B2FA82F59E
:101D6000FA6EFA6E002BC2F3846208BF6546AA427F
:101D700031D1FA6E22F00042FA662CE0062202EA25
:101D8000940205FA02FC0E6807F1600555F823403D
:101D90004FF20002C0F2FF3206F0F846224046EA57
:101DA0000C06324342F0004245F823200A698B6951
:101DB00055F8226026F08076334345F822300A69D0
:101DC0000B7F55F82260012B26F0007608BF06F144
:101DD000007645F82260BA68D20750D10D68CA680B
:101DE000D7F8B0602B466FF3DF4326EA030C4FF6BB
:101DF000FF7602F01804C0F20706E64000242E40E9
:101E0000C4F27F0446EA0C06A242C7F8B06036D19D
:101E100093B195FAA5F2B2FA82F2013202F01E03F2
:101E2000092B02F01F0310D801229A4003EB430351
:101E300042EA035315E000BF012202EB956202F073
:101E40001E030A2B02F01F03EED3012200269A4044
:101E500003EB4303CFF6206606EB03531A4342F02D
:101E60000073C3F3406607EB86068A687569C3F39F
:101E7000045307249C40A5439A402A4372610B688F
:101E80000021C8F208010B4266D040F2003EC5F2C4
:101E9000000EAEF500710EF580648F4204BF40F273
:101EA0000034C5F200042146B7F1A04F04BF40F250
:101EB0000031C5F200018D680022CCF2213293423C
:101EC00005F0E07C04D01022C9F2C002934245D153
:101ED0002A0261D440F20062C5F20002974202D0A9
:101EE000B7F1A04F5AD18A6822F0E07242EA0C02A0
:101EF00042F400028A604BF6DC21C2F2000109685C
:101F000042F663528909C0F23E52A1FB02129109C6
:101F100001EB41010C2202EB8101009100990029A3
:101F200048D00099013900910099002944D00099C6
:101F3000013900910099002940D0009901390091A0
:101F4000009900293CD0009901390091009900299D
:101F50004FF00001E5D141E000213FE00022CCF24A
:101F60005272934208BF15F0807219D00021CCF64E
:101F700084318B424FF0000108BF15F480022DD14F
:101F8000B7F1A04F1FD040F20011C5F200018F42FF
:101F900018D1002122E000BF00211FE000211DE038
:101FA0008A6822F0E07242EA0C0242F080728A6093
:101FB000002113E0002111E000210FE000210DE0DD
:101FC00000210BE0A646DEF8081021F0E07141EA9E
:101FD0000C0141F48001CEF808100021002280F8A5
:101FE0005820084601B0F0BD70470000704700005F
:101FF000704700002DE9F04F81B040F200480268C0
:10200000C5F200080446A8F5407B4FF442701668FC
:1020100055685A4508BF6FF0F700B2F1A04F08BFEE
:102020006FF0F70050F80800B10700F01F090FD556
:1020300015F002000CD0E06DC00603D4E06D40F452
:102040000060E0652046FFF77BF9226802201060FF
:1020500040F2001A7007C5F2000A02D515F004001C
:1020600004D1300752D515F008004FD0204650F863
:102070005C1FC90603D4016841F400710160D16896
:1020800011F4406F3CD152450AD040F20051C5F2E4
:1020900000018A42114614D14146914204D110E018
:1020A0004FF0A04191420CD0B9F1090F00F21A8112
:1020B000012101FA09F140F22123194200F01281B5
:1020C0001146C96889041BD41168090718D591689D
:1020D00049070BD4516821F00C015160016821F4CB
:1020E000807101600168C90406D509E0E06D40F027
:1020F0001000E06504F16000016841F00101016039
:102100002046FFF771FF22680C201060B00602D550
:1021100015F0200004D1700635D515F0400032D0FE
:10212000204650F85C1FC90603D4016841F40051F1
:102130000160D16CD768524501F4C0730AD040F2F7
:102140000051C5F200018A42114613D14146914225
:1021500004D10FE04FF0A04191420BD0B9F1070F2D
:1021600000F2A880012101FA09F111F0C10F00F07D
:10217000A1801146C968002B76D02046FEF79CF856
:1021800022686020106030060CD515F0800009D060
:10219000E06D40F48030E065204600F0F5F92268FB
:1021A00080201060F0050DD515F480700AD0E06D28
:1021B00040F40030E0652046FFF784FC22684FF4CD
:1021C00080701060B0050DD515F400700AD0E06D78
:1021D00040F48020E0652046FFF776FC22684FF44B
:1021E00000701060F00625D515F0100022D0E06BCD
:1021F00090B1B9F1000F59D04FF442705A4508BF61
:102200006FF0F700B2F1A04F08BF6FF0F70058F879
:10221000000010F4604F0BD0E06D40F48060E0658A
:10222000206E40F0020020662046FFF7E1FE2268A3
:1022300010201060700513D515F4806010D0E06D8B
:102240004FF4806140F48040E065206E40F008006B
:1022500020662046116001B0BDE8F04FFFF7EABAF2
:1022600001B0BDE8F08F00BF8B0106D507F44063D5
:1022700001F40057DB197FF480AF13685B067FF52C
:102280007CAF11F400117FF478AF916809071DD479
:10229000516821F060015160016821F480510160B2
:1022A0000168C9053FF569AF16E000BFD068C007F7
:1022B000B2D1BDE7524521D040F20051C5F2000134
:1022C0008A42114608BF414654E700BFE06D40F026
:1022D0001000E06504F16000016841F00101016057
:1022E0004BE700BF52450DD040F20051C5F200014E
:1022F0008A42114608BF4146E3E600BF4FF0A041C5
:1023000038E700BF4FF0A041DBE60000B0B582B077
:102310000446002001904CB1E06D58B121688868F6
:10232000800012D48868C00019D54CE0012002B0AA
:10233000B0BD00BF204600F029F90020206684F8D7
:102340005800216888688000ECD588684FF6C07214
:10235000C5F6FF72104088608868C00033D44FF61D
:10236000C0728868C5F6FF7202F18052104000F119
:10237000805088604BF6DC20C2F20000006842F614
:1023800063528009C0F23E52A0FB02029009022271
:1023900002EB400001900198A8B100BF01980138FC
:1023A0000190019878B1019801380190019850B1DD
:1023B000019801380190019828B1019801380190E5
:1023C00001980028EAD18868C00009D4E06D40F087
:1023D0001000E065206E40F001002066012000E062
:1023E00000208A68E36D02F0040203F01003D218A3
:1023F000E26D40F0818022F481720232E2658A68E7
:10240000D20729D140F2001341F48072C5F20003D3
:1024100040F2080C9A42C5F2000C73D1DCF800308F
:10242000DCF800211A43D20716D10CF1F8024FF460
:10243000E063D4F804E0914208BF4FF44073B1F177
:10244000A04F08BF4FF440735CF8032022F47C12C5
:1024500042EA0E024CF80320627FE36B43EA423209
:10246000D4E902C31A4394F8243042EA0C02012B47
:1024700042EA034207D1D4F828C00023CFF6FE7306
:1024800003EB4C431A43E36A33B103F47873D4F893
:1024900030C01A4342EA0C02D1F80CC044F20703E0
:1024A000CFF6F07303EA0C031A43CA600A69636B40
:1024B00022F040621A430A618A68120753D494F8E2
:1024C0003820237F520042EA833CCB6844F2020268
:1024D00023EA020242EA0C02CA6022690B69FAB1DD
:1024E00043F480330B61D1F8C0C043F6FF732CEA8C
:1024F00003031A431CE000BF42F010010120E16514
:1025000002B0B0BDDCF800E4DCF80025DCF80036F1
:1025100042EA0E021A43D2073FF487AF9CE700BF9E
:1025200023F480320A61D1F8C02043F6FF739A4346
:10253000C1F8C02094F840300A69012B10D140F254
:10254000FD7322EA030CD4E91132D4E913E543EA1E
:102550000C031A4342EA0E022A4342F0010201E050
:1025600022F001020A6162690B6B012A23F00F025B
:1025700002D1236A013B1A430A63E16D012262F32F
:102580000101E16502B0B0BD704700002DE9F041E6
:102590009CB0804600201B90CDE91900CDE91700C2
:1025A00002A85421FEF762FCD8F8000040F20011A6
:1025B000C5F20001884263D0B0F1A04F40F0D68050
:1025C0004FF4004002904FF00050139002A801F029
:1025D0008BFF002818BFFEF737FE4BF6A445C2F26A
:1025E0000005296841F24C00C4F202004A1C2A602E
:1025F00041B9016841F400510160016801F40051E2
:1026000001910199016817AE41F001010160016873
:10261000032401F00101019101990168002741F0B3
:10262000020101600068314600F00200019001984B
:10263000072017904FF090401894199700F06AFD0A
:1026400041F2020017A991C140F20040C4F6000017
:10265000314600F05FFD3020C4F20200143045F82E
:10266000040F052080214FF48072C5E9010705F1B0
:1026700014004FF480632026C5E90371CCC061E0EB
:102680004FF4004002904FF00050139002A801F068
:102690002BFF002818BFFEF7D7FD4BF6A441C2F26E
:1026A00000010A6841F24C00C4F20200531C0B60A6
:1026B00042B9016841F400510160016801F4005120
:1026C00001910199016817AD41F0040101600168B1
:1026D000032401F00401019101990168002641F0F1
:1026E000010101600068294600F001000190019895
:1026F0003720179040F20040C4F6000000F58060DB
:102700001894199600F006FDC02017A951C14FF08A
:102710009040294600F0FEFC4DF2E0453020C2F228
:102720000005C4F2020080224FF480734FF48067EA
:102730002024242185E84300C5E90362C5E9053763
:10274000C5E90746284600F073F905F1280608B1E7
:10275000FEF77AFD122000210022C8F85450C6F876
:10276000008000F03FFE122000F02CFE1CB0BDE8FF
:10277000F08100002DE9F041044640F200170068A6
:10278000C5F200074FF4C163B84208BF4FF40273AB
:10279000B0F1A04F08BF4FF40273DB598668904632
:1027A000720704D40E4694F85810012902D1022071
:1027B000BDE8F08107F5A06203F01F0501219042FA
:1027C00084F8581018BF002D08D12046FEF752FC9F
:1027D00070B1002184F85810BDE8F081052DF4D0C7
:1027E000092DF2D0002084F858000120BDE8F081C6
:1027F0002168E06D40F60172904300F58070B942A7
:10280000E06509D040F20050C5F20000814209D1D4
:1028100007F5407002E000BF4FF0A040884218BFAB
:10282000002D03D1E06D20F48010E065E06D40F6EE
:102830007573C0044FF0000044BF206E20F0060006
:102840002066606D40F6F177C0F60003C0F6000721
:1028500040F6D9750022C0F60005C0E90B371C23ED
:1028600045630B6084F858204A68434642F01002E2
:102870004A60CA6842F00102CA604031324600F044
:102880006DF921684FF6C0738A68C7F6FF731A4066
:1028900004328A60BDE8F08180B5014690F82500D9
:1028A000022825D10868D1E910CE8A6C036823F08C
:1028B0000E030360136823F480731360026822F030
:1028C000010202600EF01F00012202FA00F0CCF8B3
:1028D0000400D1E913205060486D68B1026822F409
:1028E00080720260D1E916024260002005E000BF5C
:1028F0000420C863012000E00020012281F8252087
:10290000002281F8242080BD80B590F8251002298E
:102910002ED10168D0E910CE826C0B6823F00E0333
:102920000B600B6823F001030B60116821F48071C8
:1029300011600EF01F02012101FA02F2CCF804200E
:10294000D0E913325A60426D32B1136823F48073B8
:102950001360D0E91623536080F82510826B0021A4
:1029600080F824100AB190470021084680BD00BFBE
:102970000421C1630121002280F8251080F8242061
:10298000084680BDB0B5D0E910C30268DCF800107D
:1029900003F01F030424D2F800E09C400C4218BF4F
:1029A0001EF0040522D102249C400C4218BF1EF0E8
:1029B000020529D1D940090724D51EF0080108BF16
:1029C000B0BD116821F00E011160012101FA03F27E
:1029D000CCF80420C16380F82510416B002280F8F8
:1029E000242079B1BDE8B040084700BF11688906CE
:1029F00003D4116821F004011160CCF80440016B8C
:102A00000029EFD1B0BD00BF1168890606D4116856
:102A100021F00A011160012180F82510CCF8044052
:102A2000C16A0022002980F82420DBD1EAE70000F7
:102A300000284FF0010100F08E802DE9F04740F2B0
:102A4000000CC4F2020C03684FF6F8320CF5816EEC
:102A5000CBF6FD72734538BF02F580624CF6CD446B
:102A60001A44CCF6CC44A2FB04286FF0070252FAB9
:102A700083F2A2FB04290CF580656FF00304D0E912
:102A80000262D0F810A03CBF0025C4F2020504EA9F
:102A90009804C0E91054022580F825501D6847F6B7
:102AA000F07725EA070737433A43476942EA0A02C3
:102AB00085693A43C7692A43056A3A432A431A603B
:102AC0000CF50262734538BF0CF50062A3180CF5D3
:102AD0000862C264C9F3041240F6840C01FA02F2DF
:102AE000B6F5804FC4F2020C8364026506D1002162
:102AF00041601960CCF800201EE000BF41685FFA19
:102B000081FE013903294FF00001C3F800E0CCF841
:102B1000002011D8AEF101020CEB820747F87C1FB0
:102B200002F01F01012202FA01F30CF1BC02394646
:102B3000CCF8C03002E000BF0022002300F1540CAA
:102B40008CE80E0000210122C16380F8252080F866
:102B50002410BDE8F0470846704700002DE9F04119
:102B600090F824C0BCF1010F43D04FF0010C80F865
:102B700024C090F825C0BCF1010F37D14FF0020CF2
:102B800080F825C04FF0000CC0F83CC0D0F800C061
:102B900000F14C0E9EE83040DCF80060BEF1000F02
:102BA00026F00106CCF8006065601CBFD0E9164530
:102BB0006560D0E91076012506F01F068468B540EF
:102BC000D0F830807D60CCF804300B46102C04BF68
:102BD00013460A46CCF80830CCF80C20DCF800107C
:102BE000B8F1000F08D041F00E010DE0002180F88F
:102BF00024100220BDE8F08121F00401CCF800107F
:102C0000DCF8001041F00A01CCF80010806C01687B
:102C1000C90303D5016841F480710160BEF1000F62
:102C200005D0DEF8000040F48070CEF80000DCF83B
:102C3000000040F00100CCF800000020BDE8F08169
:102C4000B0B5044600F05AFB05464BF6B420C2F27C
:102C500000004068611C18BF044400BF00F04EFB38
:102C6000401BA042FAD3B0BD70470000704700007F
:102C7000704700002DE9F04F85B004460068016DF3
:102C8000426DD0F850B0456D076D466D036D01EA99
:102C900002080493436D0393036D0293436D019304
:102CA000D0F854A0D0F850905FEA496307D51AF0E5
:102CB000400104D0402101652046FFF7D9FF0BEA0F
:102CC000050B5FEAC95008F4E0550ED51AF4807080
:102CD0000BD02068D0F8D810D0F8E02011404FF485
:102CE00080720265204600F00DFA37400BF00706AF
:102CF0002DB1206829460565204600F007FA07F047
:102D000038052EB1206831460665204600F0F2F9FC
:102D10002DB1206829460565204600F0EDF95FEAEF
:102D2000895009D51AF4007006D020684FF400715C
:102D30000165204600F0ECF95FEA09600DD51AF054
:102D400080000AD02068D0F8D410D0F8DC201140E0
:102D500080220265204600F0D7F95FEA894009D554
:102D60001AF4005006D020684FF400510165204647
:102D700000F0C6F95FEA0940DDE9011000EA01054B
:102D800009D51AF4004006D020684FF400410165CF
:102D9000204600F0B3F9DDE9031008405FEA49413D
:102DA00005F460210AD51AF4804207D022684FF456
:102DB00080431365226E42F08002226600F47105A2
:102DC00021B1206801652046FFF750FF25B120683A
:102DD0000565206E28432066206E28B1204605B088
:102DE000BDE8F04FFFF740BF05B0BDE8F08F000031
:102DF00070B5D8B1044690F85C0028B9002084F87A
:102E00005D00204600F01EF92068816921F0100164
:102E1000816100F073FA054620688169090707D5CA
:102E200000F06CFA401B0B28F6D312E0012070BDB5
:102E3000816941F00101816100F060FA054600BF3F
:102E400020688169C9070DD100F058FA401B0B2892
:102E5000F6D3206E032140F001002066012084F8A3
:102E60005C1070BD826946F2004CC4F2000C42F066
:102E700002026045826102D16268CCF80021227CA6
:102E80008369012A23F0400318BF40338361627CC9
:102E90008369012A23F4804308BF03F580438361DB
:102EA000A27C8369012A23F4805318BF03F5805361
:102EB00083618269D4E902E322F4407545EA0E0594
:102EC0008561856925F0A4058561056925F01005F2
:102ED00005619BB1012B0DD0022B09D08569032B15
:102EE00045F080058561056945F01005056105D14E
:102EF000202300E0042385692B43836104F114053A
:102F00002ACD226A5E1E6FF0FF0303EB052545EA1A
:102F10004665013A2A430025CFF6FF7505EB0141CE
:102F20001143BEF5407FC16110D1D4E909E2D4E973
:102F30000B61013A03EB06231A436FF00F0303EB17
:102F40000111114305EB0E421143C160D4E90D1389
:102F5000E26BD0F8C0603243C0F8C0200CF5806648
:102F60000CF58042B04204BF4AF25072C4F2000233
:102F70000CF50066B04208BF02F5D4622264D0F8B6
:102F8000806026F4F81646EA0141C0F8801002F18C
:102F900070016164D0F8801021F0706141EA036132
:102FA000C0F8801002F1B000A06402F5C470E064C3
:102FB00002F51870206502F51E70606502F5547008
:102FC000002100BFC2E90011C2E90211C2E90411E7
:102FD000C2E90611C2E90811C2E90A11C2E90C11DD
:102FE000C2E90E11C2E91011C2E91211C2E91411AD
:102FF000C2E91611C2E91811C2E91A11C2E91C117D
:10300000C2E91E11C2E92011C2E92211C2E924114C
:10301000C2E92611C2E92811C2E92A11C2E92C111C
:10302000C2E92E11C2E93011C2E93211C2F8D01042
:10303000D4328242C6D300200121A065206684F8E4
:103040005C1070BD10B59AB004466846043050213B
:10305000FDF70CFF206846F20041C4F200018842EF
:1030600002D01AB010BD00BF4FF4805000904FF056
:1030700080700E90684601F037FA002818BFFEF7FE
:10308000E3F841F24C00C4F20200C16841F0007163
:10309000C160C16801F0007115911599016841F096
:1030A00002010160006815A900F002001590159852
:1030B0004FF440701590022016900020CDE91700C3
:1030C0000920199040F20040C4F6000000F022F8F8
:1030D00015200021002200F085F9152000F072F97A
:1030E00016200021002200F07DF9162000F06AF978
:1030F0001AB010BD70470000704700007047000014
:1031000070470000704700007047000070470000E3
:10311000704700002DE9F04F84B08E4641F2004226
:10312000C4F60002DEF8004006219042019008BF7C
:103130000521002C009100F0D7800198002500F1B6
:1031400038424FEAB2230098012700264FF00008CA
:10315000052B38BF18460090CDF808E00EE000BF00
:10316000DEF8004008F1010834FA07F106F1020622
:1031700007F1010705F1040500F0B680A7F1010A87
:10318000012000FA0AF314EA0309E9D0DEF804C0CA
:103190000CF0030BABF10104012C17D80198744615
:1031A00081680322E468B2409143B44021438160C6
:1031B00041684FEA480E9943CCF3001303FA0AF32F
:1031C0000446D043194361600CE000BF0321B140C5
:1031D000019CC843BBF1030FB64603D1B6464FF07E
:1031E000030B23E0E168029A01409368BBF1020FF0
:1031F00003FA0EF341EA0301E16017D16FF0030116
:1032000001EA5A01214405F01C040F23D1F820C023
:1032100003FA04FB13692CEA0B0CA34043EA0C03EA
:10322000019C0B62D2F804C00CF0030B21680BFA6E
:103230000EF2014011432160DDF808E01CF4403F2C
:103240008ED041F26000C4F20200016840F2004CEE
:1032500041F0010101600168C4F2010C01F00101BB
:10326000039103992AF003014FF6084A6144CFF60F
:10327000FF7A05F00C030F2051F80A2000FA03F43E
:103280000098A24300FA03F31A4341F80A20DCF83D
:103290000810DEF8042041EA090340F20C40D40291
:1032A00058BF21EA0903CCF80830C4F201000168D4
:1032B000940241EA090358BF21EA09030360DCF8DC
:1032C0000410940341EA090358BF21EA0903CCF82A
:1032D0000430DCF80010D20341EA090358BF21EAA8
:1032E0000903CCF800303BE704B0BDE8F08F0000E4
:1032F0001823002A08BF2823C15070474DF63470A8
:10330000C2F20000006870474BF6B4204DF63471ED
:10331000C2F20000C2F2000140680A68104408606E
:103320007047000080B5032000F088F80F2000F0FF
:1033300009F800281CBF012080BD00F029F80020FA
:1033400080BD000070B54BF6B426C2F2000671686D
:10335000E1B104464BF6DC20C2F200004FF47A7271
:103360000068B2FBF1F1B0FBF1F001F045FF0F2C6A
:103370004FF0010508D838B94FF0FF302146002240
:10338000002500F02FF83460284670BD012070BD84
:1033900082B041F25800C4F20200816841F001019C
:1033A0008160816801F0010101910199016841F09A
:1033B00080510160006800F080500090009802B0D9
:1033C00001F088B8002848BF704700F01F010122B3
:1033D00002FA01F14EF200124009CEF2000242F868
:1033E0002010704710B54EF60C5CCEF2000CDCF8E5
:1033F0000030C3F3022E8EF00704042C28BF0424EF
:10340000BEF103034FF0FF3E0EFA04F438BF002371
:10341000A14399400EFA03F39A43114300F00F02BF
:10342000043A624409010C3200F16043B0F1FF3FFD
:10343000C8BF03F56442117010BD00004EF60C5178
:10344000CEF200010A684FF6FF031A4060F30A2229
:1034500042F0806040F0FD70086070470122016812
:10346000C0F8D022002280F8C822B1F8540040F001
:103470000100A1F85400B1F8540040F0020200200D
:10348000A1F854207047000010B50129044613D05C
:1034900011BB607A48B103F0F7FF4EF61050CEF240
:1034A0000000016821F006010160D4F8D802BDE8EF
:1034B000104005F027BA00BFD4F8D80205F0A8FAEA
:1034C000607A002808BF10BD4EF61050CEF2000002
:1034D000016841F00601016010BD000080B501F0F7
:1034E000070C0CEB8C0C00EBCC0C01EB810E0CF1FF
:1034F000100C00EBCE00090658BF00F5A87C002098
:10350000002A19BFCCF808300121ACF806300021A0
:103510008CF80C1080BD000001EB8102D0F8D8328D
:1035200000EBC200426A184605F0AEB801EB81021A
:10353000D0F8D83200EBC200D0F86421184605F06C
:10354000F7B8000010B50446080601F0070000EBCC
:10355000800104EBC10205D402F5A871002382F8B2
:10356000513103E0012302F11001537494F89022C9
:103570000870012A04BF022010BD2068012284F8CF
:10358000902205F0A7FE002084F8900210BD0000F4
:10359000B0B50446007901F00F02824284BF0120D9
:1035A000B0BD080601F0070000EB800104EBC1028A
:1035B00006D402F5A871002382F8513104E000BF5F
:1035C000012302F11001537494F890220025012A7E
:1035D0008D70087004BF0220B0BD2068012284F8FD
:1035E000902205F00BFF284684F89052B0BD0000F1
:1035F00001F0070101EB810100EBC100D0F86C0183
:1036000070470000B0B50546080601F0070000EB62
:10361000800105EBC10C05D40CF5A87100248CF8D1
:10362000514104E001240CF110018CF811406FF3BA
:10363000DF2208700A61022BCB7004BF00200871E2
:1036400095F89002012804BF0220B0BD286801222D
:1036500085F8902205F0CCFC002085F89002B0BDE2
:1036600010B501F0070C0CEB8C0100EBC10E0068EB
:103670000EF5A8710024CEF86421CEF86831CEF89A
:103680006C418EF851418EF850C105F00FFF0020BB
:1036900010BD000010B50279044601F00700904209
:1036A00084BF012010BD0A060AD401EB810104EB9E
:1036B000C10202F5A871002382F8513108E000BF71
:1036C00000EB800104EBC102012302F110015374ED
:1036D00094F890320122012B8A70087004BF0220F6
:1036E00010BD206884F8902205F0C6FE002084F802
:1036F000900210BD80B501F0070C0CEB8C0100EBC3
:10370000C10101F810CF00684FF0010C01F114075E
:1037100081F824C04FF0000E87E80C400B6281F85E
:1037200001C005F0C3FE002080BD00002DE9F04F70
:1037300081B00446006806F0EFF9010420D4410589
:1037400000F1D883410400F1E783810400F1FC8398
:10375000C10400F10384010500F12684010600F193
:103760003984810500F14684C00540F1D183206889
:10377000B0F8441021F48071A0F84410C8E300BFF1
:103780002068B0F94410B1F1FF3F00F3C18304F5A4
:10379000267140F60F7B009123E000BFB0F8501077
:1037A00094F85021014401EBC201B1F80634B4F899
:1037B000562100996FF39F23C4F86C3106F0B0F9DD
:1037C0002068018801EA0B0180310180204600F069
:1037D000BBFD00BF2068B0F94410B1F1FF3F00F31A
:1037E0009783B0F8442012F00F0949D030F82980AF
:1037F0004FEA490A5FEA084140F1448130F81A1063
:1038000040F60F7501EA0B01803120F81A1009EB20
:10381000890104EBC10B9BF85C110BF5A87600291C
:1038200000F09A809BF85311022940F0A780B0F86D
:103830005020317802445FEA484302EBC10200F1B4
:10384000B580B2F80674DBF868216FF39F27D21BAE
:103850004FF0000338BF1A46CBF8682140F2C08011
:103860005FEA486200F1CC8030F8212048F2C003C2
:103870002A401A4320F82120002F40F0C280E5E0C2
:103880000188D20626D401EA0B0101F5004101802E
:10389000B0F85010227C084400EBC200B0F80204DB
:1038A000616A6FF39F20E062084460622046002155
:1038B000FFF732FE207B00288CD0A06A002889D137
:1038C000207B216840F08000C0B2A1F84C000020AD
:1038D00020737FE70A053FF561AF09047FF57AAFF2
:1038E000018801EA0B0180310180B0F8501094F892
:1038F0005021014401EBC201B1F806346FF39F235C
:10390000C4F86C3193B1D4F8641179B1B4F856218C
:1039100006F006F9D4F86401D4F86C110844C4F830
:10392000640120460021FFF701FE206801880A0596
:103930003FF550AF01F44051B1F5405F3FF44AAF5D
:10394000018843F60F7211404CF28002A2F58052BA
:10395000514001803EE700BFB0F85010327801447A
:1039600001EBC201B1F806746FF39F27002F6DD0F1
:10397000DBF86411BBF8562164E000BF327848F2EE
:10398000C00330F822102940194320F8221030F8E3
:103990002230B0F8501000EBC2025B04114419D47D
:1039A000B1F806746FF39F275FBB4FE0B2F8027463
:1039B000DBF868216FF39F27D21B4FF0000338BF5D
:1039C0001A46CBF8682121D95FEA48622DD4AFBBF3
:1039D0003CE000BFB1F802746FF39F2777BB35E07E
:1039E00030F8212043F60F731A4048F2C00303F564
:1039F000FE535A4020F821205FEA48627FF534AF39
:103A000027B3DBF86411BBF85A211BE030F8212002
:103A100043F60F731A4048F2C00303F5FE535A40B1
:103A200020F821205FEA4862D1D530F8212048F201
:103A3000C0032A401A4320F821203FB1DBF864116B
:103A4000BBF858213B4606F06BF800E00027DBF896
:103A50006C11DBE9590239443844CBF86C11CBF8CE
:103A600064011AB1DBF86001B84205D9317820460B
:103A7000FFF75CFD04E000BF2068314605F016FD4D
:103A800040F60F7B5FEA08607FF5A4AE206809EB83
:103A9000890130F81A3004EBC10203EA0B0101F589
:103AA000004120F81A10D77C02F1100A012F23D10F
:103AB000117F00294FF00001916200F039815FEA27
:103AC000486100F18780517C012900F01B810029A9
:103AD00040F02E81B0F850109AF80020084400EB16
:103AE000C200B0F806146FF39F21A0F80614B0F8D6
:103AF000061441F400410DE15FEAC8511ED4B0F84C
:103B000050309AF80010034403EBC103B3F80234B9
:103B1000976A6FF39F23FF1A4FF0000638BF3746AE
:103B2000976240F20781516AD76A19445162F918C5
:103B3000D162514605F0BAFC4CE600BFB0F85030F7
:103B40009AF800105FEA486500EBC10E5CD40EF2F3
:103B5000064C3CF80330966A6FF39F23F61A4FF039
:103B6000000538BF2E46966240F288805FEA4847DB
:103B700008D430F821704CF2800607EA0B0737436F
:103B800020F82170154615F8341F012940F0A28154
:103B9000174657F8308F57E904E157F8046C194479
:103BA0001E44F04547F80C1C47F8046C80F0108167
:103BB000B8F1000F00F054810023C6463B602B7023
:103BC000537C012B40F00B81B0F850302CF803E00F
:103BD00067E100BF517C012900F0A080002940F07E
:103BE000A780B0F850109AF80020084400EBC200FB
:103BF000B0F802146FF39F21A0F80214B0F8021479
:103C000041F4004192E000BF0EF2024C3CF8033058
:103C1000966A6FF39F23F61A4FF0000538BF2E46C1
:103C200096624DD95FEA484708D530F821704CF2CA
:103C3000800607EA0B07374320F82170174617F86C
:103C4000341F012940F04681154655F830EF55E9FB
:103C5000049155F8046C19441E44CE4545F80C1CDB
:103C600045F8046C80F0D4804FF00008BEF1000FDE
:103C700087F8008040F0CF809E46CEE0527C012A3B
:103C80005CD0002A64D1B0F850207244B2F80234FB
:103C90006FF39F23A2F80234B2F8023443F40043D6
:103CA000A2F80234B0F850203CF802306FF39F23A2
:103CB0002CF802303CF8023043F4004346E000BFE9
:103CC000527C012A5AD0002A62D1B0F850203CF828
:103CD00002306FF39F232CF802303CF8023043F49B
:103CE00000432CF80230B0F850207244B2F8063489
:103CF0006FF39F23A2F80634B2F8063443F400436E
:103D000044E000BFB0F850109AF80020084400EBDF
:103D1000C2000021A0F806140AE000BFB0F850105D
:103D20009AF80020084400EBC2000021A0F8021419
:103D30009AF800102046FFF7EFFB4BE5B0F8502053
:103D400000237244A2F80234B0F850202CF802305C
:103D5000022F0AD130F8212040F63F731A4048F272
:103D6000C003203B5A4020F821202046FFF7D4FB17
:103D70005FEA48403FF52EAD1EE000BFB0F850208E
:103D800000232CF80230B0F850207244A2F8063418
:103D9000022F0AD130F8212040F63F731A4048F232
:103DA000C003203B5A4020F821202046FFF7B4FBF7
:103DB0005FEA48407FF50EAD20689AF800104CF29B
:103DC000800330F8212002EA0B021A438EE000BF84
:103DD000A8EB0E033B60537C012B3FF4F5AE002BA8
:103DE0005FD1B0F85030BEF1000F3CF803506FF3D4
:103DF0009F252CF803503BD0BEF13E0F40D80EF06B
:103E0000010533F80C6005EB5E0546EA852546E0C2
:103E1000AEEB0908CE46C5F80080537C012B19D0C3
:103E2000002B52D1B0F85030BEF1000F3CF80350D7
:103E30006FF39F252CF803501ED0BEF13E0F33D8F0
:103E40000EF0010533F80C6005EB5E0546EA8525AA
:103E500039E000BFB0F850302CF803E035E000BF87
:103E600000272F709E46537C012BB8D1ACE600BFD3
:103E700033F80C5011E000BF33F80C5021E000BFC4
:103E80005FEACE664FEA5E1533F80C604FF0FF37FD
:103E900008BF07EB5E1546EA852545F4004523F883
:103EA0000C50528B12E000BF5FEACE664FEA5E15FF
:103EB00033F80C604FF0FF3708BF07EB5E1546EA9A
:103EC000852545F4004523F80C50128B1FFA8EF31C
:103ED00005F07CFE20689AF8001040F63F7330F839
:103EE00021201A4048F2C003103B5A4020F82120FC
:103EF00070E400BF2068B0F8441021F48061A0F89D
:103F00004410204600F0E2F994F8900201280DD107
:103F100001B0BDE8F08F00BF2068B0F8441021F474
:103F20008041A0F8441001B0BDE8F08F01200025C9
:103F300084F8900225732068002105F03FFE84F884
:103F4000905201B0BDE8F08F2068B0F8441021F421
:103F50000051A0F8441001B0BDE8F08F2068B0F81F
:103F6000401021F00401A0F84010B0F8401021F0FA
:103F70000801A0F8401094F8C802012806D10020DA
:103F800084F8C80220460021FFF77EFA204600F0A0
:103F9000AFF92068B0F8441021F48051A0F8441023
:103FA00001B0BDE8F08F00BF2168B1F8400040F0DB
:103FB0000800A1F84000B1F8440020F40060A1F826
:103FC0004400B1F8400040F004022046A1F840202F
:103FD0000BE000BF2068B0F8441021F08001A0F889
:103FE000441094F8C81299B1204601B0BDE8F04FD2
:103FF00000F0C8B92168B1F8440020F400722046EE
:10400000A1F8442001B0BDE8F04F00F085B900BF31
:10401000B0F8401041F00401A0F84010B0F8401092
:1040200041F00801A0F84010012184F8C812B0F84E
:1040300054003C2101EA900220460121C4F8CC2220
:1040400001B0BDE8F04FFFF71FBA0000F0B581B036
:10405000002800F00381044690F8910228B900205E
:1040600084F89002204600F0FDF8032084F89102C5
:10407000206805F0B9F92179002900F0DD80A1F16F
:10408000010E01F0030CBEF1030F4FF0000334D317
:1040900001F0FC0004F1A002012600256F1C02F8CB
:1040A000687CAF1C02F8905C02F8407CEF1C043581
:1040B00002F88F6C02F88D3C42E9203342F8783CDC
:1040C00002F8676C02F8653C42E9163342F8503C4E
:1040D00002F83F6C02F83D3C42E90C3342F8283CC0
:1040E00002F8176C02F8187C02F8153C42E902331A
:1040F00042F8A03B8542D1D12B46BCF1000F29D01C
:1041000003EB830004EBC00501220020BCF1010F8A
:104110006A742B74E874C5E90800A8621AD05D1CA3
:1041200005EB850604EBC606BCF1020F727435740C
:10413000F074C6E90800B0620CD0981C00EB800255
:1041400004EBC2020123107400205374D074C2E93E
:104150000800906200296FD0BEF1030F4FF00002FB
:1041600033D301F0FC0004F5F07100235F1C01F86B
:10417000687C9F1C01F8903C01F8407CDF1C0433F4
:1041800001F88F2C01F88D2C41E9202241F8782C80
:1041900001F8672C01F8652C41E9162241F8502CF2
:1041A00001F83F2C01F83D2C41E90C2241F8282C64
:1041B00001F8172C01F8187C01F8152C41E90222AE
:1041C00041F8A02B8342D1D11A46BCF1000F33D065
:1041D00002EB820004EBC0010020BCF1010F81F86A
:1041E000510181F8502181F85301C1E95800C1F80B
:1041F000680121D0511C01EB810304EBC303BCF126
:10420000020F83F8510183F8501183F85301C3E979
:104210005800C3F868010FD0901C00EB800104EB3C
:10422000C101002281F8512181F8500181F8532108
:10423000C1E95822C1F8682194E8070005F0C6F8E2
:1042400000200121207384F89112A17A012903D161
:104250002046FFF703F9002001B0F0BD012001B0B6
:10426000F0BD000010B596B0044601A804305021FE
:10427000FCF7FCFD206845F60041C4F200018842CD
:1042800002D016B010BD00BF4FF40050019001A83D
:1042900000F02AF9002818BFFCF7D6FF41F25800B9
:1042A000C4F202000168002241F4000101600068CC
:1042B000002100F40000009000981420FFF792F80D
:1042C0001420FFF77FF816B010BD000010B50446AB
:1042D0004079022818BFFCF7B7FFD4F8D8020121B3
:1042E00004F02AFBD4F8D802BDE8104004F0D6BA96
:1042F00010B50446407A48B14EF61050CEF2000098
:10430000016821F00601016003F0BEF8D4F8D8027C
:10431000BDE8104004F0F6BAD0F8D80204F0FCBAB8
:1043200010B5044690F89002012804BF022010BD89
:10433000012084F890022173206805F03FFC0020E2
:1043400084F8900210BD0000D0F8D82200F5267144
:10435000104604F007BB000010B5044690F8900228
:10436000012804BF022010BD2068012184F89012AA
:1043700005F0C2FB206805F01FF8002084F89002C9
:1043800010BD000010B50446D0F8D80204F040FB80
:10439000607A002808BF10BD4EF61050CEF2000023
:1043A000016841F00601016010BD0000B0F5007F1A
:1043B00042D0002840F0808047F21400C4F2000090
:1043C00050F8141CC26E01F4C06122F48072B1F581
:1043D000806FC2662ED150F8141C012262F34A216C
:1043E00040F8141C4BF6DC21C2F2000109683222AD
:1043F00051434DF68362C4F21B32A1FB0212910CB1
:104400000268520511D54A1C0FD0026852050CD51E
:1044100059B10268520508D5012906D00268520533
:1044200003D50229A1F10401EAD10068400544BF87
:10443000032070470020704747F21400C4F20000C8
:1044400050F8141CC26E01F4C06142F48072B1F5E0
:10445000806FC266EED150F8141C012262F34A212B
:1044600040F8141C4BF6DC21C2F20001096832222C
:1044700051434DF68362C4F21B32A1FB0212910C30
:104480000268520511D54A1C0FD0026852050CD59E
:1044900059B10268520508D5012906D002685205B3
:1044A00003D50229A1F10401EAD10068400544BF07
:1044B00003207047BEE700BF47F21400C4F20000BB
:1044C00050F8141C022262F34A2140F8141C002008
:1044D0007047000047F20800C4F20000016841F490
:1044E00080410160704700002DE9F04182B0044630
:1044F000807841F288060007C4F2020602D4002048
:104500002FE000BF56F8300C10F080580BD156F851
:10451000300C40F0805046F8300C56F8300C00F06B
:1045200080500190019847F20007C4F200073868F4
:1045300040F480703860FEF7E1FE05463868C0053B
:1045400000F10C81FEF7DAFE401B0228F6D90320A9
:10455000B8F1000F05D156F8301C21F0805146F813
:10456000301C2168CA0717D18A071DD44A0723D4F3
:104570000A0729D4CA062FD48A0635D44A063BD462
:104580000A0641D4CA0547D48A034DD48A0553D4B8
:104590004A0559D467E000BF3268636822F003021D
:1045A0001A4332608A07E1D53268A36822F00C0210
:1045B0001A4332604A07DBD53268E36822F03002E2
:1045C0001A4332600A07D5D53268236922F0C00247
:1045D0001A433260CA06CFD53268636922F440724A
:1045E0001A4332608A06C9D53268A36922F4406250
:1045F0001A4332604A06C3D53268E36922F4405256
:104600001A4332600A06BDD53268236A22F440425A
:104610001A433260CA05B7D53268636A22F4403261
:104620001A4332608A03B1D57269A36A22F0030289
:104630001A4372618A05ABD53268E36A22F44022DC
:104640001A4332604A050ED53268236B22F44012B9
:104650001A43B3F5801F326005D156F87C2C42F422
:10466000801246F87C2C0A050ED53268636B22F462
:1046700040021A43B3F5800F326005D156F87C2C06
:1046800042F4801246F87C2CCA040ED53268A36B23
:1046900022F040721A43B3F1807F326005D156F8A0
:1046A0007C2C42F4801246F87C2C8A040ED53268A9
:1046B000E36B22F040621A43B3F1006F326005D120
:1046C00056F87C2C42F4801246F87C2C4A040ED515
:1046D0003268236C22F040621A43B3F1006F3260FB
:1046E00005D156F87C2C42F4801246F87C2C0A0442
:1046F0000ED53268636C22F040521A43B3F1805FEA
:10470000326005D156F87C2C42F4803246F87C2C7D
:10471000CA030ED53268A36C22F040421A43B3F1AB
:10472000804F326005D156F87C2C42F4803246F836
:104730007C2C49030ED57169E26C21F440111143C0
:10474000B2F5001F716105D156F87C1C41F480114F
:1047500046F87C1C02B0BDE8F08100BFB06810F4E0
:10476000407010D0216D88420BD0B068B16820F441
:10477000407041F48031B160B16821F48031B160A2
:10478000B060C0070CD1B068216D20F440700843C0
:10479000B0600020B8F1000F7FF4E3AEDBE600BFAD
:1047A000FEF7ACFD054641F2883700BFB0688007D0
:1047B000E9D4FEF7A3FD401BB842F7D9C7E60000D5
:1047C0002DE9F04700286DD042F2000AC4F2020A37
:1047D0000446DAF800000D4600F00F0088420CD2C3
:1047E000DAF8000020F00F002843CAF80000DAF8D9
:1047F000000000F00F00A84254D1216841F20808DF
:10480000C807C4F2020803D1880740F1D880BDE090
:10481000606802283AD0032840D158F8082C920149
:1048200040D5D8F80420D8F8043042F2004702F00E
:104830000302C3F30313C0F2F4070133032A04BFD6
:1048400041F20027C0F27A07D8F80420B7FBF3F34F
:10485000D8F80470C2F306225A43C7F34163022713
:1048600007EB4303B2FBF3F24BF20043C0F2C44345
:104870009A4261D9D8F8002012F0F00F51D0890780
:104880005AD5A168002957D14BE000BF58F8081C41
:1048900089035CBF0120BDE8F08707E058F8081CD9
:1048A000490503D40120BDE8F08700BFD8F8001007
:1048B00001F00C0104293FD0D8F8001001F00C01E0
:1048C000082939D0D8F8001001F00C010C2933D197
:1048D000D8F80410D8F8042042F2004301F0030194
:1048E000C2F30312C0F2F4030132032904BF41F200
:1048F0000023C0F27A03D8F80410B3FBF2F2D8F820
:104900000430C1F306215143C3F34162022303EB98
:104910004202B1FBF2F14BF20042C0F2C4429142BA
:104920000AD9D8F80010082262F307114FF00109E4
:10493000C8F8001002E000BF4FF00009D8F80010DE
:1049400021F003010843C8F80000FEF7D7FC064633
:1049500041F28837D8F80000616800F00C00B0EB35
:10496000810F07D0FEF7CAFC801BB842F2D90320A2
:10497000BDE8F0872168880708D4B9F1000F1ED080
:10498000D8F8000020F0F00017E000BF480705D578
:10499000D8F8000040F4E060C8F80000080706D529
:1049A000D8F80000072262F30D20C8F80000D8F8FC
:1049B0000000A26820F0F0001043C8F80000DAF808
:1049C000000000F00F00A8421BD9DAF8000020F028
:1049D0000F002843CAF80000FEF790FC064641F29B
:1049E000883700BFDAF8000000F00F00A84207D0B7
:1049F000FEF784FC801BB842F4D90320BDE8F087A1
:104A00002168480707D5D8F80000E26820F4E06084
:104A10001043C8F80000080708D5D8F8000021693D
:104A200020F4605040EAC100C8F80000D8F8000047
:104A300042F20041C0F2F40100F00C0004280846E4
:104A40002DD0D8F8000000F00C00082841F200201A
:104A5000C0F27A0023D0D8F8002002F00C020C2A11
:104A60001CD1D8F80420D8F8043002F00302C3F3B4
:104A700003130133032A08BF0146D8F80400B1FB31
:104A8000F3F1D8F80420C0F306204843C2F3416193
:104A9000022202EB4101B0FBF1F000E00020D8F867
:104AA00000104AF23C62C1F30311C0F60002515CEF
:104AB0004BF6DC2201F01F0120FA01F14BF6B42085
:104AC000C2F200000068C2F200021160BDE8F047C7
:104AD000FEF738BC4BF6DC2041F20801C2F20000C0
:104AE000C4F20201006809684AF24C62C1F3022173
:104AF000C0F60002515C01F01F01C8407047000081
:104B00004BF6DC2041F20801C2F20000C4F20201BF
:104B1000006809684AF24C62C1F3C221C0F6000283
:104B2000515C01F01F01C8407047000041F20C01C8
:104B3000C4F2020151F8040C42F20042C0F2F40245
:104B400000F00C000428104608BF704751F8040C10
:104B500000F00C00082841F20020C0F27A0021D0B9
:104B600051F8043C03F00C030C2B1CBF00207047D1
:104B7000D1F800C00B680CF0030CC3F3031301332E
:104B8000BCF1030F08BF02460868B2FBF3F20968E4
:104B9000C0F306205043C1F34161022202EB410100
:104BA000B0FBF1F0704700002DE9F04182B0002821
:104BB00000F006810446007841F20006C007C4F206
:104BC000020655D12078800774D42078000700F1C0
:104BD00097802078400700F1B7802078800600F1A8
:104BE0000781E569002D00F03082B06800F00C000C
:104BF0000C2840F05981012D00F0E280F068216A14
:104C000000F003028A4240F0DB80626A6FF00F031B
:104C100000F0F00103EB0212914240F0D180A16A52
:104C200000F4FE42B2EB012F40F0CA80E16A00F0CE
:104C30007842B2EBC16F40F0C380226B0023CFF605
:104C4000E07303EB025200F4C0016FF314029142CF
:104C500040F0B680616B4FF07E4202EB016100F0E4
:104C6000C06001F07E41884240F0AA80EDE100BFC3
:104C7000B06800F00C01F06808295BD0032281F0D5
:104C80000C0122EA00000844B0FA80F0400951D13A
:104C90006068B0F5803F07D0B0F5A02F40F0DA8013
:104CA000306840F480203060306840F480303060FC
:104CB000DBE000BFB068F16800F00C00042869D0A8
:104CC00001F0030180F00C0081F002010844B0FA09
:104CD00080F040095ED1E1683068002900F0D280A0
:104CE00040F480703060FEF709FB054630684005EF
:104CF00000F1FC80FEF702FB401B0228F6D92EE1F2
:104D00006169D6F89400002900F0908040F001001D
:104D1000C6F89400FEF7F2FA054600BFD6F89400F4
:104D200080073FF556AFFEF7E9FA401B0228F5D998
:104D300015E100BF306880037FF544AF606800284C
:104D40007FF440AF3CE000BFB06D10F0805808D158
:104D5000B06D40F08050B065B06D00F080500190B3
:104D6000019847F20007C4F200073868C0052BD449
:104D7000386840F480703860FEF7C0FA054600BF1E
:104D80003868C00520D4FEF7B9FA401B0228F7D9CD
:104D9000E5E000BF3068400501D5E06880B170688B
:104DA000216920F0FE4040EA016070604BF6B420BB
:104DB000C2F200000068FEF7C5FA00283FF405AF14
:104DC000012002B0BDE8F081A068012808D00528C4
:104DD00040F0AA80D6F8900040F00400C6F8900099
:104DE000D6F8900040F00100C6F89000A9E000BF9E
:104DF000A169D6F89800002900F0808040F00100F9
:104E0000C6F89800FEF77AFA054600BFD6F8980073
:104E100080073FF5E6AEFEF771FA401B02284FF01F
:104E20000300F3D902B0BDE8F08100BF20F001001B
:104E3000C6F89400FEF762FA054600BFD6F8940063
:104E400080077FF5C6AEFEF759FA401B0228F5D958
:104E500085E000BF3168002821F48031316031687D
:104E600021F48021316000F07F80FEF747FA05468B
:104E7000306880033FF5A6AEFEF740FA401B642879
:104E8000F6D96CE020F480703060FEF737FA054602
:104E9000306840057FF599AEFEF730FA401B0228D6
:104EA0004FF00300F4D9BDE7306820F08070306027
:104EB000FEF724FA022D05460CD100BF30688001B0
:104EC00040F17E80FEF71AFA401B02284FF00300E3
:104ED000F4D9A7E73068800140F1B080FEF70EFA00
:104EE000401B02284FF00300F4D99BE7706821694A
:104EF00020F0FE4040EA0160706066E620F00100AC
:104F0000C6F89800FEF7FAF9054600BFD6F89800F3
:104F100080077FF566AEFEF7F1F9401B02284FF0DF
:104F20000300F3D97EE700BFD6F8901021F001010D
:104F3000C6F89010D6F8901021F00401C6F8901031
:104F400010B3FEF7DBF9054641F28837D6F890003A
:104F500080072BD4FEF7D2F9401BB842F6D90320C4
:104F600002B0BDE8F08100BFFEF7C8F9054600BFFA
:104F7000306880037FF526AEFEF7C0F9401B642839
:104F80004FF00300F4D94DE7FEF7B8F9054641F2BA
:104F9000883700BFD6F89000800707D5FEF7AEF936
:104FA000401BB8424FF00300F4D93BE7B8F1000FC3
:104FB0007FF413AEB06D20F08050B0650DE600BFF9
:104FC000F06848F20C01C0F29F1104F1200700EADA
:104FD000010C8ECF6FF00F00D4E90C5400EB0210DF
:104FE0000022CFF6E07241EA0C0102EB05520843C1
:104FF0006FF314024FF07E4540EA032005EB046591
:10500000104305F07E4540EAC7602843F0603068F1
:1050100040F080703060F06840F08070F060FEF723
:105020006DF90446306880010FD4FEF767F9001B64
:1050300002284FF00300F5D9F4E600BFF0684FF600
:10504000FC71CFF6EE610840F060002002B0BDE8D0
:10505000F0810000002804BF01207047B0B504466D
:10506000406A28B10020206104F1140006E000BF6E
:105070006068B0F5827F03D004F11C00002101605C
:105080000025A56294F85D0020B9204684F85C50A4
:1050900000F052F8022084F85D002068D4F80CE09B
:1050A0000268BEF5E06F22F0400202604EF400623A
:1050B00098BF0125B2F5706F1CBF0023A3624FEAB1
:1050C000053CD4E90135D4E9042103F4827305F4E5
:1050D00004452B4402F002021A44A36901F00101C5
:1050E000E569114403F40072114405F03802256AA1
:1050F000114405F08002A56A114405F400521143E1
:1051000001600421626A0EF4706501EA1341636B69
:1051100045EA0C0502F01002294303F0080311438D
:1051200019434160C16921F40061C161002001217E
:10513000206684F85D10B0BD80B586B0006843F687
:105140000041C4F2000188424FF000010591CDE911
:105150000311CDE9011123D043F20001C4F2010192
:10516000884246D141F24C00C4F20200416941F448
:1051700080514161416901F48051009100990168B9
:1051800041F0020101600068052100F0020000907A
:1051900000983820019040F20040C4F600001FE063
:1051A00041F24C00C4F20200C16841F40041C16008
:1051B000C16801F4004100910099016841F00401C7
:1051C00001600068062100F00400009000984FF490
:1051D000E050019040F20040C4F6000000F580600D
:1051E000022202920022059101A9CDE90322FDF7D6
:1051F00091FF06B080BD0000411E0020B0EB116F92
:105200001CBF012070474EF21002CEF20002516026
:105210004EF62351CEF20001F0230B70072190606F
:105220001160704770470000704700007047000031
:10523000B0B590F83C20012A04BF0220B0BDD1E9EE
:105240000232D1E900CE22F47C5223F4705343EAB7
:10525000020448F2FF73CEF6F0730EEA0302224313
:1052600003F5006404EA0C0442EA040C0C6903F53B
:10527000C05222404C6942EA0C02224303F56054BA
:1052800022400C6B03F5F04323401A438B6940F234
:10529000000CCC69CEF6FF7C0CEA034C1443026888
:1052A00042F60043C4F201039A4244EA0C030BD0D5
:1052B00045F20004C4F20104A24205D043F20044C6
:1052C000C4F20104A24217D14FF6FF74CDF60F4489
:1052D00003EA040ED1E9084CD1E90A310025CDF6E4
:1052E000F04505EA035343EA0E0324F008552B4327
:1052F0002CF000552B430B430021536480F83C10E5
:105300000846B0BD704700007047000070470000BD
:1053100070B590F83C20012A4FF0020265D080F869
:105320003D20026842F600435468D2F808C0C4F237
:10533000010345F2000E9A42C4F2010E18BF7245F5
:105340002CD14D6824F470042C434FF68F75CFF6A2
:10535000FF550E682C4042F6FF35C4F20105344378
:10536000AA4254600EDC40F2FF73C4F200039A427A
:105370001CDCB2F1804F2DD040F20043C4F2000398
:1053800026E000BF43F6FF74C4F20104A24219DC18
:105390009A421FD043F2004318E000BF43F2004599
:1053A000C4F20105AA42CCD0CFE700BF40F600030B
:1053B000C4F200039A420DD040F60043C4F2000349
:1053C00006E000BF724505D044F20003C4F20103B9
:1053D0009A4204D189682CF080031943916001211D
:1053E000002280F83D1080F83C20104670BD00007F
:1053F00041B1082910D0042914BF00F1470200F17F
:1054000045020BE090F84420012A1CBF01207047A0
:10541000022280F8442013E000F146021278012AAB
:105420001CBF012070470222082907D0042914BF9D
:1054300080F8472080F8452002E000BF80F8462031
:10544000026801F00F000421136A01FA00F023EA58
:1054500000011162116A08431062506C42F6FF317C
:10546000C4F2010140F400408A4250640EDC40F274
:10547000FF70C4F20000824218DCB2F1804F2DD0E0
:1054800040F20040C4F2000026E000BF43F6FF7087
:10549000C4F20100824215DC42F60040C4F2010071
:1054A00082421BD043F2004014E000BF40F60000EF
:1054B000C4F20000824211D040F60040C4F2000065
:1054C0000AE000BF45F20000C4F20100824205D0AC
:1054D00044F20000C4F2010082420CD1906807211E
:1054E000C0F20101014006294FF0000008D0B1F5DB
:1054F000803F08BF7047106840F001001060002036
:105500007047000010B5026801F00F0E4FF0040C58
:10551000146A0CFA0EF324EA03031362136A13628B
:10552000146A41F211131C4206D1D2F820C044F291
:1055300044441CEA040F0DD0146A1C4211D1136AB2
:1055400044F2444423420CD1136823F00103136056
:1055500007E000BF546C24F400445464146A1C42F5
:10556000EDD008290CD0042910D000294FF00101FA
:1055700014BF80F8471080F84410002010BD00BF11
:10558000012180F84610002010BD00BF012180F8E5
:105590004510002010BD000070470000002804BF27
:1055A0000120704710B5044690F83D0028B900204E
:1055B00084F83C00204600F023F8022084F83D00E7
:1055C0002068211D01F0A8FF012084F8480084F81C
:1055D0003E0084F83F0084F8400084F8410084F8DD
:1055E000420084F8430084F8440084F8450084F8BD
:1055F000460084F8470084F83D00002010BD0000FC
:1056000080B582B0006840F20041C4F200018842D7
:105610001ED042F60041C4F20101884225D141F278
:105620005800C4F202008168002241F400618160E8
:105630008068002100F40060019001981920FDF7B6
:10564000D1FE192002B0BDE88040FDF7BBBE00BF0F
:1056500041F25800C4F20200016841F00201016009
:10566000006800F002000090009802B080BD0000C9
:1056700090F83D1001291CBF01207047022180F8DD
:105680003D10016842F6FF30C4F2010081420DDC9A
:1056900040F2FF70C4F20000814217DCB1F1804F8C
:1056A0002CD040F20040C4F2000025E043F6FF7029
:1056B000C4F20100814215DC42F60040C4F2010050
:1056C00081421BD043F2004014E000BF40F60000CE
:1056D000C4F20000814211D040F60040C4F2000044
:1056E0000AE000BF45F20000C4F20100814205D08B
:1056F00044F20000C4F2010081420CD18868072204
:10570000C0F201020240062A4FF0000008D0B2F5B4
:10571000803F08BF7047086840F001000860002023
:105720007047000080B590F83C20012A4FF002023B
:1057300000F0988080F83D20D0F800C08822DCF886
:105740000830CFF6CE721A40CCF808200B68B3F5BB
:10575000005F0DDA3F2B21DD5F2B33DD602B00F086
:105760008380702B00F0A280B3F5805F73D0E7E0F8
:105770002F22C0F21002934218DD4F21C0F2100117
:105780008B4247DD5021C0F210018B4257D060217F
:10579000C0F210018B4252D070214BE01F2B41DC34
:1057A000002B4CD0102B4AD0CAE000BFB3F1101F21
:1057B0003EDAB3F5005F00F08D80B3F5801F3ED078
:1057C000BEE000BF402B00F09980502B40F0B88025
:1057D000D1F804E0C968DCF82030DCF8202022F0A1
:1057E0000102CCF82020DCF8182022F0F00242EA76
:1057F000011123F00A0242EA0E02CCF81810CCF88C
:105800002020DCF808104FF68872CFF6CF721140D6
:1058100057311EE03021C0F210018B420FD04021E1
:1058200008E000BF202B0AD0302B08D088E000BF52
:1058300005D02021C0F210018B4240F08180DCF8BD
:1058400008104FF68872CFF6CF721140194341F01D
:105850000701CCF808100022012180F83D1000213A
:1058600080F83C10104680BDD1F804E0C968DCF82F
:105870002030DCF8202022F01002CCF82020DCF8C8
:10588000182022F4704242EA013123F0A00242EAD9
:105890000E12CCF81810CCF82020DCF808104FF6C7
:1058A0008872CFF6CF7211406731D2E7D1E901E3B8
:1058B000C968DCF8082043EA0E0322F47F4243EA79
:1058C00001211143CCF80810DCF8081041F07701F1
:1058D000BFE700BFD1E901E3C968DCF8082043EA6B
:1058E0000E0322F47F4243EA01211143CCF8081051
:1058F000DCF8081041F48041ABE700BFD1F804E0C8
:10590000C968DCF82030DCF8202022F00102CCF855
:105910002020DCF8182022F0F00242EA011123F0E6
:105920000A0242EA0E02CCF81810CCF82020DCF86B
:1059300008104FF68872CFF6CF721140473188E7D2
:10594000012289E770470000F0B581B00446006885
:10595000C5680669B10717D515F0020114D06FF0BC
:1059600002010161012121778069800704D020466E
:10597000FFF7E8FF06E000BF204600F01DF92046D3
:1059800000F050FB00202077700719D515F00400B7
:1059900016D020686FF0040101610221217780692F
:1059A00010F4407F04D02046FFF7CCFF06E000BF94
:1059B000204600F001F9204600F034FB002020775B
:1059C000300717D515F0080014D020686FF00801D3
:1059D000016104212177C069800703D02046FFF7C9
:1059E000B1FF05E0204600F0E7F8204600F01AFB82
:1059F00000202077F00619D515F0100016D0206889
:105A00006FF01001016108212177C06910F4407F17
:105A100004D02046FFF796FF06E000BF204600F0C6
:105A2000CBF8204600F0FEFA00202077F00718BFE0
:105A300015F0010006D020686FF0010101612046D9
:105A400000F02EFC16F4025F05F0800718BF002F4F
:105A500002D1F00509D410E020686FF40251016111
:105A60002046FFF7E1FBF00507D537B120686FF45A
:105A7000807101612046FFF7D5FB700609D515F04E
:105A8000400006D020686FF040010161204600F020
:105A900009FCB00609D515F0200006D020686FF08B
:105AA000200101612046FFF7C1FBF00209D515F482
:105AB000801006D020686FF4801101612046FFF746
:105AC00023FCB00209D515F4001006D020686FF44D
:105AD000001101612046FFF715FC700209D515F48D
